:100000000C9474000C949C000C949C000C949C0028
:100010000C949C000C949C000C949C000C949C00F0
:100020000C949C000C949C000C949C000C94460630
:100030000C949C000C949C000C949C000C949C00D0
:100040000C94A4050C949C000C9414060C94EE05DE
:100050000C949C000C949C000C949C000C949C00B0
:100060000C9407070C949C00C60A930A980A9F0AEE
:10007000A60AAD0AB40ABB0AC60A680A980A9F0A09
:10008000A60AAD0AB40ABB0A750A7A0A7F0A840A6C
:10009000890A8E0A930A00000000240027002A0023
:1000A00000000000250028002B00040404040404C0
:1000B0000404020202020202030303030303010217
:1000C00004081020408001020408102001020408E6
:1000D00010200000000800020100000304070000D7
:1000E000000000000000350811241FBECFEFD8E04B
:1000F000DEBFCDBF11E0A0E0B1E0EEE9FBE102C060
:1001000005900D92AC3AB107D9F723E0ACEAB1E023
:1001100001C01D92A934B207E1F710E0C4E7D0E0B6
:1001200004C02197FE010E94C20DC337D107C9F751
:100130000E94C9080C94CD0D0C940000282F30911A
:100140007102313208F04AC080914D028111FCCF1A
:100150009091700242E040934D0220934C022FEFA9
:1001600020934B0210924A0230934902E0E5F2E0FC
:10017000A9E2B2E020E0321721F041914D932F5FC8
:10018000FACF1092280220912802990F922B909377
:10019000280290912702913061F4109227029091E9
:1001A00028029093BB009091BC0093FDF8CF95EC92
:1001B00001C095EE9093BC0090914D029230E1F316
:1001C00090914B029F3F79F080914B02803241F039
:1001D00080914B02803331F084E005C081E003C0A0
:1001E00082E001C083E010924F02109271021092DF
:1001F0004E0208951F93CF93DF93162FC6E4D3E0EA
:10020000988121E020934E029093700210924F0249
:1002100010927102A981BA81ED91FC911197019020
:10022000F081E02D682FCD01099589819A81DC014B
:10023000ED91FC910190F081E02D612F099581E015
:10024000DF91CF911F910C949E00DC01ED91FC9108
:100250000190F081E02D09940F931F93CF93DF93CA
:100260008B01C6E4D3E0988121E020934E02909365
:10027000700210924F0210927102A981BA8124E09B
:10028000829FC0011124BC016A5F7F4FED91FC91F8
:1002900011970190F081E02DCD01099560E070E0AB
:1002A00089819A810E94250160E070E089819A81AC
:1002B0000E942501B80189819A810E942501612F40
:1002C00070E089819A810E94250181E0DF91CF91C0
:1002D0001F910F910C949E008F929F92AF92BF92AC
:1002E000EF92FF921F93CF93DF93FC0110811C309C
:1002F00008F04FC0828128E532E07901E81AF10860
:1003000087FDF394EE0CFF1CEE0CFF1C8181C8E806
:10031000D0E0C81BD10987FDD395CC0FDD1FCC0FD2
:10032000DD1F4E010D2E000CAA08BB08C7010F2CC3
:10033000000CAA0BBB0B9C01AD01281939094A0915
:100340005B09AAE5B0E00E94F00A24EB30E040E04F
:1003500050E00E94D10A820E931EA41EB51E8C1678
:100360009D062CF0E7018E149F040CF4E401229703
:10037000CC0FDD1F2FB7F894812F90E0FC01EE0F1A
:10038000FF1F8E0F9F1FFC01E15FFC4FD283C183D3
:100390002FBFDF91CF911F91FF90EF90BF90AF9053
:1003A0009F908F90089586E480937C0080917A00DE
:1003B000806480937A0080917A0086FDFCCF8091E2
:1003C00078002091790090E0922B089590E0FC0154
:1003D000EE52FF4F2491FC01E254FF4F3491FC0197
:1003E000E655FF4FE491EE2309F43CC0222339F196
:1003F000233091F038F42130A9F0223001F584B592
:100400008F7D12C0273091F02830A1F02430B9F44C
:10041000809180008F7D03C0809180008F778093D2
:1004200080000DC084B58F7784BD09C08091B00075
:100430008F7703C08091B0008F7D8093B000F0E093
:10044000EE0FFF1FE056FF4FA591B4919FB7F894B0
:10045000611104C08C913095382302C0EC913E2B81
:100460003C939FBF08953FB7F8948091010290910B
:100470000202A0910302B091040226B5A89B05C018
:100480002F3F19F00196A11DB11D3FBFBA2FA92F13
:10049000982F8827820F911DA11DB11DBC01CD0190
:1004A00042E0660F771F881F991F4A95D1F708957C
:1004B0008F929F92AF92BF92CF92DF92EF92FF9274
:1004C0006B017C010E9433024B015C01C114D10419
:1004D000E104F104F1F00E943302DC01CB01881940
:1004E0009909AA09BB09883E9340A105B10570F39B
:1004F00021E0C21AD108E108F10888EE880E83E0F5
:10050000981EA11CB11CC114D104E104F10419F717
:10051000DDCFFF90EF90DF90CF90BF90AF909F9096
:100520008F90089508950895CF92DF92EF92FF92F1
:100530000F931F93CF93DF936C017A018B01C0E07F
:10054000D0E0CE15DF0581F0D8016D918D01D60187
:10055000ED91FC910190F081E02DC6010995892B68
:1005600011F02196EECF7E01C701DF91CF911F914F
:100570000F91FF90EF90DF90CF900895FC01538D85
:10058000448D252F30E0842F90E0821B930B54176D
:1005900010F0CF96089501970895FC01918D828DFA
:1005A000981761F0828DDF01A80FB11D5D968C91C7
:1005B000928D9F5F9F73928F90E008958FEF9FEFD2
:1005C0000895FC01918D828D981731F0828DE80F8E
:1005D000F11D858D90E008958FEF9FEF0895FC0148
:1005E000918D228D892F90E0805C9F4F821B910915
:1005F0008F739927089582E792E00E94EF0221E02D
:10060000892B09F420E0822F0895FC01848DDF01FD
:10061000A80FB11DA35ABF4F2C91848D90E0019675
:100620008F739927848FA689B7892C93A089B18964
:100630008C91837080648C93938D848D981306C005
:100640000288F389E02D80818F7D80830895EF9269
:10065000FF920F931F93CF93DF93EC0181E0888F7C
:100660009B8D8C8D981305C0E889F989808185FD63
:1006700026C0F62E0B8D10E00F5F1F4F0F73112752
:10068000E02E8C8DE8120CC00FB607FCFACFE8897B
:10069000F989808185FFF5CFCE010E940503F1CF56
:1006A0008B8DFE01E80FF11DE35AFF4FF0829FB7DB
:1006B000F8940B8FEA89FB89808180620AC09FB71A
:1006C000F894EE89FF896083E889F98980818370D5
:1006D000806480839FBF81E090E0DF91CF911F9184
:1006E0000F91FF90EF900895CF93DF93EC01888DE9
:1006F0008823C9F0EA89FB89808185FD05C0A88926
:10070000B9898C9186FD0FC00FB607FCF5CF8081AB
:1007100085FFF2CFA889B9898C9185FFEDCFCE01F5
:100720000E940503E7CFDF91CF91089580E090E02C
:10073000892B29F00E94FB0281110C94000008957E
:10074000CF93DF93DC018C918C3008F06DC0CB012E
:100750009927FC01E254FF4F2491FC01E655FF4F1D
:100760008491882399F090E0880F991FFC01EA5644
:10077000FF4FC591D491FC01E056FF4F85919491B4
:100780008FB7F894E881E22BE8838FBF8C91E82F34
:10079000F0E09F01220F331FE20FF31FE15FFC4FD8
:1007A0006F739081907C692B608311961C921197D6
:1007B00012961C9212976CE00E94B60D9CE0899FE5
:1007C000B001112440E050E09B01240F351FF901D6
:1007D000EE0FFF1F2E0F3F1FF901E15FFC4F9081CD
:1007E00096FD16C04F5F5F4F4C30510569F7811180
:1007F0000FC01092800082E08093810010928500EB
:1008000010928400B19A80916F00826080936F0093
:10081000EC91F0E0CF01880F991FE80FF91FE15F1D
:10082000FC4F8081806480838C91DF91CF9108950B
:1008300085ED8093BC008091BC0084FDFCCF1092BC
:100840004D0208954091CC01262F30E0240F311D38
:1008500021323105DCF420914D022430C9F4FC0131
:1008600080E090E0861758F43091CC012191DC01B2
:10087000A455BE4FA30FB11D2C930196F3CF8091C9
:10088000CC01680F6093CC0180E0089581E0089569
:1008900082E008950895E091060280910502E8172C
:1008A00030F4F0E0E95FFD4F808190E008958FEF34
:1008B0009FEF08959091060280910502981750F4D9
:1008C000E92FF0E0E95FFD4F208130E09F5F9093DA
:1008D000060202C02FEF3FEFC90108958091050283
:1008E00090E020910602821B91090895CF92DF9239
:1008F000EF92FF920F931F93CF93DF937C01CB0175
:100900008A0120914E02222389F0EB016B01C40E73
:10091000D51ECC15DD0569F06991D701ED91FC91EB
:100920000190F081E02DC7010995F3CF642F0E945B
:100930002204C801DF91CF911F910F91FF90EF909A
:10094000DF90CF900895CF93DF931F92CDB7DEB79E
:10095000698320914E022223D1F02091710220322E
:1009600040F021E030E0FC013383228380E090E01E
:1009700015C080914F02E82FF0E0E05BFD4F9981B8
:1009800090838F5F80934F028093710205C061E076
:10099000CE0101960E94220481E090E00F90DF9149
:1009A000CF910895089580E090E00895CF93DF936C
:1009B00026E636E646E65FE30E94490D9B01AC0160
:1009C00060E27CEB8EEB95E40E949E0B20E030E031
:1009D00040E85FE30E942C0B20E030E040E05FE362
:1009E0000E942D0B0E947C0C0E94100CD62F80912F
:1009F000460391E090934E028093700210924F0252
:100A0000109271028091470390914803DC01ED91AF
:100A1000FC910190F081E02D60E0099581E00E9459
:100A20009E008091460390914D029111FCCF91E080
:100A300090934D0290934C022FEF20934B02109213
:100A40004A02109249029093280290912802880F3E
:100A5000892B8093280280912702813061F41092C3
:100A60002702809128028093BB008091BC0083FD07
:100A7000F8CF85EC01C085EE8093BC0080914D02DB
:100A80008130E1F380914A02811103C090914A02C2
:100A900001C091E0A9E2B2E0E7E0F2E080E089176E
:100AA00021F02D9121938F5FFACF1092060280934F
:100AB00005028091470390914803DC01ED91FC9180
:100AC0000284F385E02D0995C82F682F6F76606149
:100AD00080E00E94FA006D2F8EEF0E94FA006C2FCA
:100AE00080E00E94FA0065E070E080E090E00E9403
:100AF00058026C2F606A80E0DF91CF910C94FA006D
:100B0000CF93DF93009779F0FC0101900020E9F783
:100B10003197AF01481B590BBC0182E792E00E945C
:100B20009402EC0102C0C0E0D0E042E050E066E296
:100B300071E082E792E00E9494028C0F9D1FDF918A
:100B4000CF9108950E94C80D1F920F920FB60F9279
:100B500011242F933F938F939F93AF93BF938091D3
:100B6000FD019091FE01A091FF01B0910002309132
:100B7000FC0123E0230F2D3720F40196A11DB11DA8
:100B800005C026E8230F0296A11DB11D2093FC018C
:100B90008093FD019093FE01A093FF01B0930002AA
:100BA0008091010290910202A0910302B09104028F
:100BB0000196A11DB11D8093010290930202A093A2
:100BC0000302B0930402BF91AF919F918F913F9127
:100BD0002F910F900FBE0F901F9018951F920F929C
:100BE0000FB60F9211242F933F934F935F936F9300
:100BF0007F938F939F93AF93BF93EF93FF9382E77E
:100C000092E00E940503FF91EF91BF91AF919F91F8
:100C10008F917F916F915F914F913F912F910F90A5
:100C20000FBE0F901F9018951F920F920FB60F9244
:100C300011242F938F939F93EF93FF93E091820260
:100C4000F09183028081E0918802F091890282FD17
:100C500012C0908180918B028F5F8F7320918C02E4
:100C6000821751F0E0918B02F0E0EE58FD4F958F26
:100C700080938B0201C08081FF91EF919F918F91B2
:100C80002F910F900FBE0F901F9018951F920F92EB
:100C90000FB60F9211242F933F934F935F936F934F
:100CA0007F938F939F93AF93BF93EF93FF93809125
:100CB000EF0187FF05C010928500109284001BC0D1
:100CC0002091EF01022E000C330B8091330390E052
:100CD0002817390784F48091EF01082E000C990B36
:100CE000FC01EE0FFF1F8E0F9F1FFC01E15FFC4F09
:100CF000808186FD15C08091EF018F5F8093EF01A9
:100D00002091EF01022E000C330B8091330390E011
:100D100028173907C4F48091EF018C3064F113C0B7
:100D20008091EF01082E000C990BFC01EE0FFF1FC4
:100D30008E0F9F1FFC01E15FFC4F808160E08F738D
:100D40000E94E601D8CF809184009091850004969E
:100D500080349C4918F480E49CE905C080918400AB
:100D600090918500049690938900809388008FEF7E
:100D70008093EF013BC020918400309185008091E9
:100D8000EF01082E000C990BFC01EE0FFF1F8E0FD8
:100D90009F1FFC01E15FFC4F81819281820F931FB5
:100DA00090938900809388008091EF01082E000CB9
:100DB000990BFC01EE0FFF1F8E0F9F1FFC01E15FDF
:100DC000FC4F808186FF12C08091EF01082E000C3D
:100DD000990BFC01EE0FFF1F8E0F9F1FFC01E15FBF
:100DE000FC4F808161E08F730E94E601FF91EF91DB
:100DF000BF91AF919F918F917F916F915F914F9133
:100E00003F912F910F900FBE0F901F9018951F923A
:100E10000F920FB60F9211242F933F934F935F932E
:100E20006F937F938F939F93AF93BF93EF93FF93B2
:100E30008091B900887F803609F49CC068F58832BB
:100E400009F45BC090F4803109F454C038F488236D
:100E500009F4F6C0883009F44DC0F6C0883109F4B1
:100E60004CC0803209F45DC0EFC0803409F468C022
:100E700048F4803309F455C0883309F0E5C0809305
:100E80004B02D8C0803509F44FC0883509F45DC0E5
:100E9000883409F0D9C0D6C0883909F4C7C0A8F48D
:100EA000883709F467C038F4883609F463C080379E
:100EB00009F460C0C9C0883809F4B8C0803909F4A1
:100EC0005FC0803809F0C0C05BC0803B09F486C0B9
:100ED00038F4803A09F466C0883A09F47FC0B4C097
:100EE000803C09F4A7C0883C09F4A4C0883B09F4FD
:100EF0008AC0AAC08091280210C090914A028091B5
:100F00004902981770F5E0914A0281E08E0F8093B4
:100F10004A02F0E0E75DFD4F80818093BB0085ECE5
:100F200086C080934B028EC0E0914A0281E08E0F12
:100F300080934A028091BB00F0E0E75DFD4F808323
:100F400090914A02809149026EC0E0914A0281E08C
:100F50008E0F80934A028091BB00F0E0E75DFD4F69
:100F6000808380914C0281116DC081E080932702C3
:100F700084EA61C083E080934D021092EE01CFCFEE
:100F80008091EE01803208F051C0E091EE0181E0E5
:100F90008E0F8093EE018091BB00F0E0E253FE4F94
:100FA0008083BDCF85EC8093BC0010924D02809170
:100FB000EE01803230F4E091EE01F0E0E253FE4FBA
:100FC00010826091EE0170E0E091F001F091F1018A
:100FD0008EEC91E009951092EE0136C084E080938A
:100FE0004D021092CD011092CC01E091F201F091EE
:100FF000F30109958091CC01811105C081E08093B6
:10100000CC011092AC01E091CD0181E08E0F809374
:10101000CD01F0E0E455FE4F80818093BB009091BC
:10102000CD018091CC01981708F479CF85E88093A1
:10103000BC000AC085EC8093BC0010924D0204C035
:1010400010924B020E941804FF91EF91BF91AF9153
:101050009F918F917F916F915F914F913F912F91D0
:101060000F900FBE0F901F9018951092750210925E
:10107000740288EE93E0A0E0B0E080937602909353
:101080007702A0937802B093790226E031E03093A2
:1010900073022093720225EC30E030937F0220939C
:1010A0007E0224EC30E0309381022093800220EC19
:1010B00030E0309383022093820221EC30E03093C1
:1010C00085022093840222EC30E030938702209343
:1010D000860226EC30E03093890220938802109239
:1010E0008B0210928C0210928D0210928E0210923E
:1010F0003D0310923C0380933E0390933F03A093E3
:101100004003B093410388E191E090933B038093C7
:101110003A038AE393E0909348038093470380E483
:1011200080934603809133038C30A0F491E0980FB4
:10113000909333038093370390E0FC01EE0FFF1F81
:101140008E0F9F1FFC01E15FFC4F88EB9BE09283B9
:10115000818303C08FEF80933703809133038C30FA
:10116000A0F491E0980F909333038093340390E0C0
:10117000FC01EE0FFF1F8E0F9F1FFC01E15FFC4F74
:1011800088EB9BE09283818308958FEF80933403F3
:101190000895789484B5826084BD84B5816084BDEF
:1011A00085B5826085BD85B5816085BD80916E0005
:1011B000816080936E001092810080918100826036
:1011C0008093810080918100816080938100809173
:1011D00080008160809380008091B1008460809362
:1011E000B1008091B00081608093B00080917A005E
:1011F000846080937A0080917A00826080937A0084
:1012000080917A00816080937A0080917A00806872
:1012100080937A001092C100E0918202F0918302E3
:1012200082E08083E0917E02F0917F021082E09163
:101230008002F09181028FEC808310928A02E0910B
:101240008602F091870286E08083E0918402F0912B
:101250008502808180618083E0918402F091850223
:10126000808188608083E0918402F0918502808192
:1012700080688083E0918402F091850280818F7D77
:10128000808389E291E00E9480050E94D301BC0125
:10129000990F880B990B0E94410C26E636E646E032
:1012A00051E40E94490D20E030E040E85AE30E94FA
:1012B000490D25E83BEE41EC50E40E94990B87FF75
:1012C00011C089E591E00E94800581E090E0909353
:1012D000F7018093F60187E090E0909301018093FD
:1012E000000175C0109206021092050210924F0282
:1012F0001092710210924D0281E080934C02109284
:10130000270261E082E10E94E60161E083E10E9440
:10131000E6018091B9008E7F8093B9008091B90079
:101320008D7F8093B90088E48093B80085E4809332
:10133000BC0082E992E09093F3018093F20183E98B
:1013400092E09093F1018093F00160E880E00E94C8
:10135000FA006AE070E080E090E00E94580260E0ED
:1013600070E08AE794E40E94D60460E070E080E7D1
:1013700092E40E94D604C0E08C2F877F823011F067
:10138000853019F467E771E002C066E970E08C2FE0
:101390000E942C01CF5FC03179F763E070E087E3F2
:1013A00093E00E94A00387E393E00E946C016BE04E
:1013B00070E084E393E00E94A00384E393E00E9442
:1013C0006C0164EF71E080E090E00E945802C1E09F
:1013D000D0E007E010E086E0682E712C95E0E92E61
:1013E000F12C24E0C22ED12C33E0A32EB12C42E00C
:1013F000842E912C2FB7F8948091FD019091FE01DD
:10140000A091FF01B09100022FBF4091F8015091CF
:10141000F9016091FA017091FB011C012D01241A60
:10142000350A460A570A20E1221627E2320641040D
:10143000510460F18093F8019093F901A093FA01AF
:10144000B093FB010E94D301BC01990F880B990B4B
:101450000E94410C26E636E646E051E40E94490D22
:1014600020E030E040E85AE30E94490D25E83BEED9
:1014700041EC50E40E94990B87FF08C0D093F7011C
:10148000C093F60181E891E00E94800580910001FF
:1014900090910101FC013196079731F08091F6019E
:1014A0009091F701019761F41093F5010093F40115
:1014B000E830F10508F072C0EC5CFF4F0C94C20DEF
:1014C000E830F10508F06AC0E45CFF4F0C94C20DEF
:1014D000E091F401F091F5013197E730F10508F062
:1014E0005DC0EC5BFF4F0C94C20DD0930101C09323
:1014F000000154C090920101809200014FC0B0924F
:101500000101A09200014AC0D0920101C0920001E5
:1015100045C0F0920101E092000140C070920101CB
:10152000609200013BC0109301010093000136C09E
:101530008091F4019091F501019719F52FC08091E8
:10154000F4019091F5010297E1F428C08091F40133
:101550009091F5010397A9F421C08091F401909135
:10156000F501049771F41AC08091F4019091F5018E
:10157000059739F413C08091F4019091F501069715
:1015800069F0109201011092000108C0109201014F
:101590001092000185EA91E00E9480050E94960366
:1015A00029CF052E97FB1EF400940E94E80A57FDF0
:1015B00007D00E94FB0A07FC03D04EF40C94E80A03
:1015C00050954095309521953F4F4F4F5F4F08956F
:1015D00090958095709561957F4F8F4F9F4F08959F
:1015E0000E941D0BA59F900DB49F900DA49F800D90
:1015F000911D11240895A1E21A2EAA1BBB1BFD0107
:101600000DC0AA1FBB1FEE1FFF1FA217B307E407E1
:10161000F50720F0A21BB30BE40BF50B661F771F39
:10162000881F991F1A9469F7609570958095909519
:101630009B01AC01BD01CF010895A29FB001B39FF2
:10164000C001A39F700D811D1124911DB29F700DCB
:10165000811D1124911D08955058BB27AA270E946F
:10166000440B0C94F70C0E94E90C38F00E94F00C2B
:1016700020F039F49F3F19F426F40C94E60C0EF494
:10168000E095E7FB0C94B70CE92F0E94080D58F386
:10169000BA17620773078407950720F079F4A6F557
:1016A0000C94420D0EF4E0950B2EBA2FA02D0B01D9
:1016B000B90190010C01CA01A0011124FF27591B97
:1016C00099F0593F50F4503E68F11A16F040A22F9D
:1016D000232F342F4427585FF3CF4695379527950E
:1016E000A795F0405395C9F77EF41F16BA0B620B0D
:1016F000730B840BBAF09150A1F0FF0FBB1F661F54
:10170000771F881FC2F70EC0BA0F621F731F841F96
:1017100048F4879577956795B795F7959E3F08F0BC
:10172000B0CF9395880F08F09927EE0F979587957E
:1017300008950E94930C08F481E008950E94B20B72
:101740000C94F70C0E94F00C58F00E94E90C40F049
:1017500029F45F3F29F00C94B70C51110C94430D00
:101760000C94E60C0E94080D68F39923B1F35523FD
:1017700091F3951B550BBB27AA27621773078407A4
:1017800038F09F5F5F4F220F331F441FAA1FA9F33A
:1017900035D00E2E3AF0E0E832D091505040E69528
:1017A000001CCAF72BD0FE2F29D0660F771F881F89
:1017B000BB1F261737074807AB07B0E809F0BB0B7C
:1017C000802DBF01FF2793585F4F3AF09E3F510590
:1017D00078F00C94B70C0C94430D5F3FE4F3983E03
:1017E000D4F3869577956795B795F7959F5FC9F779
:1017F000880F911D9695879597F90895E1E0660FFA
:10180000771F881FBB1F621773078407BA0720F072
:10181000621B730B840BBA0BEE1F88F7E0950895DB
:101820000E94100D88F09F5798F0B92F9927B75153
:10183000B0F0E1F0660F771F881F991F1AF0BA9574
:10184000C9F714C0B13091F00E94420DB1E0089583
:101850000C94420D672F782F8827B85F39F0B93F75
:10186000CCF3869577956795B395D9F73EF4909527
:101870008095709561957F4F8F4F9F4F0895E894A5
:1018800009C097FB3EF490958095709561957F4FC8
:101890008F4F9F4F9923A9F0F92F96E9BB27939576
:1018A000F695879577956795B795F111F8CFFAF486
:1018B000BB0F11F460FF1BC06F5F7F4F8F4F9F4FB7
:1018C00016C0882311F096E911C0772321F09EE815
:1018D000872F762F05C0662371F096E8862F70E07B
:1018E00060E02AF09A95660F771F881FDAF7880F55
:1018F0009695879597F908950E942A0D90F09F3745
:1019000048F4911116F00C94430D60E070E080E80B
:101910009FEB089526F41B16611D711D811D0C940B
:10192000BD0C0C94D80C990F0008550FAA0BE0E8D9
:10193000FEEF16161706E807F907C0F01216130691
:10194000E407F50798F0621B730B840B950B39F4D1
:101950000A2661F0232B242B252B21F408950A2637
:1019600009F4A140A6958FEF811D811D089597F977
:101970009F6780E870E060E00895882371F4772322
:1019800021F09850872B762F07C0662311F49927F2
:101990000DC09051862B70E060E02AF09A95660F9A
:1019A000771F881FDAF7880F9695879597F908951E
:1019B0009F3F31F0915020F4879577956795B795C3
:1019C000880F911D9695879597F908959FEF80EC64
:1019D000089500240A941616170618060906089595
:1019E00000240A9412161306140605060895092EFB
:1019F0000394000C11F4882352F0BB0F40F4BF2B6A
:101A000011F460FF04C06F5F7F4F8F4F9F4F0895A9
:101A100057FD9058440F551F59F05F3F71F047959F
:101A2000880F97FB991F61F09F3F79F08795089584
:101A3000121613061406551FF2CF4695F1DF08C0A3
:101A4000161617061806991FF1CF869571056105C0
:101A5000089408950E94100DA0F0BEE7B91788F40D
:101A6000BB279F3860F41616B11D672F782F882783
:101A7000985FF7CF869577956795B11D93959639C1
:101A8000C8F30895E894BB2766277727CB0197F919
:101A900008950E945C0D0C94F70C0E94E90C38F03C
:101AA0000E94F00C20F0952311F00C94B70C0C94CC
:101AB000E60C11240C94430D0E94080D70F3959FC1
:101AC000C1F3950F50E0551F629FF001729FBB2735
:101AD000F00DB11D639FAA27F00DB11DAA1F649FD1
:101AE0006627B00DA11D661F829F2227B00DA11D84
:101AF000621F739FB00DA11D621F839FA00D611D0A
:101B0000221F749F3327A00D611D231F849F600D2A
:101B1000211D822F762F6A2F11249F5750409AF053
:101B2000F1F088234AF0EE0FFF1FBB1F661F771FDF
:101B3000881F91505040A9F79E3F510580F00C94AA
:101B4000B70C0C94430D5F3FE4F3983ED4F38695B5
:101B500077956795B795F795E7959F5FC1F7FE2B4A
:101B6000880F911D9695879597F90895991B79E0AF
:101B700004C0991F961708F0961B881F7A95C9F71D
:101B800080950895EE0FFF1F0590F491E02D0994C4
:0E1B900081E090E0F8940C94CD0DF894FFCF16
:101B9E00FFFF0000000027039402BE027403EF0251
:101BAE00CD02E10200000000A3047604D3044A042F
:101BBE006E045A044B040D0A0048656C6C6F2C20A1
:101BCE00526F626F53706964657220686572652129
:101BDE002049276D20696E697469616C6973696E3D
:101BEE0067206E6F772E2E2E004572726F722E202A
:101BFE004261747465727920766F6C7461676520CA
:101C0E006C6576656C20746F6F206C6F772E2E2E40
:101C1E00005761726E696E672E204C6F772062617D
:101C2E00747465727920766F6C74616765206C656B
:0C1C3E0076656C2E00446F6E652100007E
:107800000C94343C0C94513C0C94513C0C94513CE1
:107810000C94513C0C94513C0C94513C0C94513CB4
:107820000C94513C0C94513C0C94513C0C94513CA4
:107830000C94513C0C94513C0C94513C0C94513C94
:107840000C94513C0C94513C0C94513C0C94513C84
:107850000C94513C0C94513C0C94513C0C94513C74
:107860000C94513C0C94513C11241FBECFEFD8E036
:10787000DEBFCDBF11E0A0E0B1E0ECE9FFE702C060
:1078800005900D92A230B107D9F712E0A2E0B1E065
:1078900001C01D92AD30B107E1F70E942D3D0C945F
:1078A000CC3F0C94003C982F959595959595959582
:1078B000905D8F708A307CF0282F295A8091C0000B
:1078C00085FFFCCF9093C6008091C00085FFFCCF60
:1078D0002093C6000895282F205DF0CF982F809127
:1078E000C00085FFFCCF9093C6000895EF92FF92F1
:1078F0000F931F93EE24FF2487018091C00087FD22
:1079000017C00894E11CF11C011D111D81E4E8164B
:1079100082E4F8068FE0080780E0180770F3E09132
:107920000401F091050109958091C00087FFE9CF1E
:107930008091C6001F910F91FF90EF9008950E94D3
:10794000763C982F8091C00085FFFCCF9093C600B5
:1079500091362CF490330CF09053892F089597555D
:10796000892F08951F930E949F3C182F0E949F3CCF
:107970001295107F810F1F9108951F93182F882350
:1079800021F00E94763C1150E1F71F9108951F935A
:10799000182F0E94763C803249F0809103018F5F5E
:1079A000809303018530C1F01F9108958091C0003C
:1079B00085FFFCCF84E18093C6008091C00085FFE5
:1079C000FCCF1093C6008091C00085FFFCCF80E102
:1079D0008093C6001F910895E0910401F091050184
:1079E00009951F9108950E94763C803241F0809164
:1079F00003018F5F80930301853081F008958091AA
:107A0000C00085FFFCCF84E18093C6008091C00058
:107A100085FFFCCF80E18093C6000895E0910401CA
:107A2000F09105010995089540E951E08823A1F0FE
:107A30002D9A28EE33E0FA013197F1F721503040CA
:107A4000D1F72D9828EE33E0FA013197F1F7215064
:107A50003040D1F7815061F708953F924F925F9285
:107A60006F927F928F929F92AF92BF92CF92DF924E
:107A7000EF92FF920F931F93CF93DF93000080E16B
:107A80008093C4001092C50088E18093C10086E015
:107A90008093C2005098589A259A81E00E94143D24
:107AA00024E1F22E9EE1E92E85E9D82E0FE0C02ECA
:107AB00010E1B12EAA24A394B1E49B2EA6E58A2E50
:107AC000F2E57F2EE0E26E2E79E4572E63E5462E36
:107AD00050E5352E0E94763C8033B1F18133B9F107
:107AE000803409F46FC0813409F476C0823409F41B
:107AF00085C0853409F488C0803531F1823521F1A3
:107B0000813511F1853509F485C0863509F48DC0BC
:107B1000843609F496C0843709F403C1853709F423
:107B200072C1863709F466C0809103018F5F80932C
:107B30000301853079F6E0910401F0910501099582
:107B40000E94763C803351F60E94F33CC3CF0E94E2
:107B5000763C803249F78091C00085FFFCCFF092DF
:107B6000C6008091C00085FFFCCF9092C600809136
:107B7000C00085FFFCCF8092C6008091C00085FFC9
:107B8000FCCF7092C6008091C00085FFFCCF609250
:107B9000C6008091C00085FFFCCF5092C600809146
:107BA000C00085FFFCCF4092C6008091C00085FFD9
:107BB000FCCF3092C6008091C00085FFFCCFB09210
:107BC000C60088CF0E94763C863808F4BDCF0E945C
:107BD000763C0E94F33C7ECF0E94763C803809F4CC
:107BE0009CC0813809F40BC1823809F43CC1883942
:107BF00009F48FC080E00E94C73C6CCF84E10E94F2
:107C0000BD3C0E94F33C66CF85E00E94BD3C0E94D3
:107C1000F33C60CF0E94763C809306010E94763C44
:107C2000809307010E94F33C55CF0E94763C80333D
:107C300009F41DC183E00E94BD3C80E00E94C73C66
:107C400049CF0E94763C809309020E94763C809343
:107C5000080280910C028E7F80930C020E94763C79
:107C6000853409F415C18091080290910902892B8D
:107C700089F000E010E00E94763CF801E85FFE4FDA
:107C800080830F5F1F4F80910802909109020817AF
:107C9000190788F30E94763C803209F045CF809125
:107CA0000C0280FF01C16091060170910701660F0F
:107CB000771F7093070160930601A0910802B091AD
:107CC00009021097C9F0E8E0F1E09B01AD014E0F09
:107CD0005F1FF999FECF32BD21BD819180BDFA9A17
:107CE000F99A2F5F3F4FE417F50799F76A0F7B1F4B
:107CF00070930701609306018091C00085FFFCCF5F
:107D0000F092C6008091C00085FFFCCFB092C60003
:107D1000E1CE83E00E94C73CDDCE82E00E94C73CFA
:107D2000D9CE0E94763C809309020E94763C8093D3
:107D300008028091060190910701880F991F909386
:107D40000701809306010E94763C853409F4A6C0A1
:107D500080910C028E7F80930C020E94763C8032D0
:107D600009F0B8CE8091C00085FFFCCFF092C6002C
:107D7000609108027091090261157105B9F140E046
:107D800050E080910C02A82FA170B82FB27011C0E2
:107D9000BB2309F45CC0E0910601F0910701319624
:107DA000F0930701E09306014F5F5F4F46175707B7
:107DB000E8F4AA2369F3F999FECF209106013091E6
:107DC000070132BD21BDF89A90B58091C00085FFB2
:107DD000FCCF9093C6002F5F3F4F30930701209355
:107DE00006014F5F5F4F4617570718F38091C00099
:107DF00085FDE5CE8091C00085FFF8CFE0CE81E023
:107E00000E94C73C67CE0E94763C803209F08CCE3F
:107E10008091C00085FFFCCFF092C6008091C00029
:107E200085FFFCCFE092C6008091C00085FFFCCFAB
:107E3000D092C6008091C00085FFFCCFC092C600E2
:107E40008091C00085FFFCCFB092C60043CEE09188
:107E50000601F091070194918091C00085FFFCCF4D
:107E60009093C6009CCF80E10E94C73C33CE0E9415
:107E7000763C0E94763C182F0E94763C112309F430
:107E800083C0113009F484C08FE00E94C73C22CE29
:107E900080910C02816080930C02E5CE80910C02EF
:107EA000816080930C0259CF809107018823880F4D
:107EB000880B8A2180930B02809106019091070123
:107EC000880F991F90930701809306018091080203
:107ED00080FF09C080910802909109020196909359
:107EE000090280930802F894F999FECF1127E091D6
:107EF0000601F0910701C8E0D1E08091080290915D
:107F00000902103091F40091570001700130D9F34B
:107F100003E000935700E89500915700017001308D
:107F2000D9F301E100935700E89509901990009169
:107F3000570001700130D9F301E000935700E89534
:107F40001395103498F011270091570001700130FB
:107F5000D9F305E000935700E895009157000170B0
:107F60000130D9F301E100935700E895329602976A
:107F700009F0C7CF103011F00296E5CF112480919F
:107F8000C00085FFB9CEBCCE8EE10E94C73CA2CD19
:0C7F900085E90E94C73C9ECDF894FFCF0D
:027F9C00800063
:040000030000780081
:00000001FF
