:100000000C9474000C949C000C949C000C94BC0305
:100010000C94BC030C94BC030C949C000C949C00AA
:100020000C949C000C949C000C949C000C942B054C
:100030000C949C000C949C000C949C000C949C00D0
:100040000C94DB0D0C949C000C948A030C946403B8
:100050000C949C000C949C000C949C000C949C00B0
:100060000C94EC050C949C005418DE0F47136C1490
:1000700094159B15A715D8160918EB0FFB0FBB108D
:100080007C118311861152121A1300000000240003
:1000900027002A00000000080002010000030407F6
:1000A0000000000000000000000000002300260007
:1000B000290000000000250028002B00040404048F
:1000C0000404040402020202020203030303030302
:1000D00001020408102040800102040810200102DF
:1000E000040810202D191D1911241FBECFEFD8E0D0
:1000F000DEBFCDBF12E0A0E0B1E0E4ECFFE302C060
:1001000005900D92AE33B107D9F724E0AEE3B2E02B
:1001100001C01D92A035B207E1F710E0C3E7D0E0BF
:1001200004C02197FE010E94B01DC237D107C9F754
:100130000E94250E0C94D51F0C9400000895CF92B8
:10014000DF92EF92FF920F931F93CF93DF936C0197
:100150007A018B01C0E0D0E0CE15DF0581F0D80137
:100160006D918D01D601ED91FC910190F081E02D12
:10017000C6010995892B11F02196EECF7E01C701AA
:10018000DF91CF911F910F91FF90EF90DF90CF9073
:100190000895FC01538D448D252F30E0842F90E08D
:1001A000821B930B541710F0CF9608950197089572
:1001B000FC01918D828D981761F0828DDF01A80F6F
:1001C000B11D5D968C91928D9F5F9F73928F90E091
:1001D00008958FEF9FEF0895FC01918D828D981700
:1001E00031F0828DE80FF11D858D90E008958FEF3D
:1001F0009FEF0895FC01918D228D892F90E0805C06
:100200009F4F821B91098F73992708958EE393E086
:100210000E94FA0021E0892B09F420E0822F089542
:10022000FC01848DDF01A80FB11DA35ABF4F2C9193
:10023000848D90E001968F739927848FA689B78962
:100240002C93A089B1898C91837080648C93938D59
:10025000848D981306C00288F389E02D80818F7DFC
:1002600080830895EF92FF920F931F93CF93DF93B4
:10027000EC0181E0888F9B8D8C8D981305C0E889F7
:10028000F989808185FD26C0F62E0B8D10E00F5F69
:100290001F4F0F731127E02E8C8DE8120CC00FB684
:1002A00007FCFACFE889F989808185FFF5CFCE0177
:1002B0000E941001F1CF8B8DFE01E80FF11DE35A72
:1002C000FF4FF0829FB7F8940B8FEA89FB898081FA
:1002D00080620AC09FB7F894EE89FF896083E8893D
:1002E000F98980818370806480839FBF81E090E082
:1002F000DF91CF911F910F91FF90EF900895CF93D1
:10030000DF93EC01888D8823C9F0EA89FB8980811D
:1003100085FD05C0A889B9898C9186FD0FC00FB6EF
:1003200007FCF5CF808185FFF2CFA889B9898C9130
:1003300085FFEDCFCE010E941001E7CFDF91CF9175
:10034000089580E090E0892B29F00E940601811138
:100350000C94000008952091420230914302281726
:10036000390771F49091400280914102981741F051
:10037000E0914002F0E0E257FD4F808190E0089567
:100380008FEF9FEF089508951F93CF93DF93DC01C4
:100390005C968D919C915D97009739F421E030E057
:1003A00013963C932E9312973BC05196ED91FC917E
:1003B000529750962C915097322F30951FB75E96DA
:1003C0004C915E97742F727041FD6095F894408156
:1003D000772311F0422B01C043234083EC01219786
:1003E000F1F748E0508160FF02C0522B01C0532357
:1003F0005083EC012197F1F76695415099F7808180
:10040000772319F08323808302C0282B20831FBF0A
:100410005C968D919C915D970197F1F781E090E05A
:10042000DF91CF911F9108952091420230914302B4
:100430002817390771F4809141022091400290E021
:10044000805C9F4F821B910960E470E00E949C1DBC
:10045000089580E090E00895209142023091430297
:1004600028173907B9F490914002809141029817FA
:1004700089F0E0914002F0E0E257FD4F8081209149
:10048000400230E02F5F3F4F2F733327209340020D
:1004900090E008958FEF9FEF089585ED8093BC0065
:1004A0008091BC0084FDFCCF10921603089540910A
:1004B0006A02262F30E0240F311D21323105DCF491
:1004C000209116032430C9F4FC0180E090E08617E7
:1004D00058F430916A022191DC01A65BBD4FA30F55
:1004E000B11D2C930196F3CF80916A02680F60933F
:1004F0006A0280E0089581E0089582E008950895F9
:100500000895E091CF028091CE02E81730F4F0E038
:10051000E053FD4F808190E008958FEF9FEF0895A5
:100520009091CF028091CE02981750F4E92FF0E01D
:10053000E053FD4F208130E09F5F9093CF0202C0D7
:100540002FEF3FEFC90108958091CE0290E02091F6
:10055000CF02821B91090895CF92DF92EF92FF9212
:100560000F931F93CF93DF937C01CB018A012091DE
:100570001703222389F0EB016B01C40ED51ECC15A5
:10058000DD0569F06991D701ED91FC910190F08151
:10059000E02DC7010995F3CF642F0E945702C801CF
:1005A000DF91CF911F910F91FF90EF90DF90CF904F
:1005B0000895CF93DF931F92CDB7DEB76983209163
:1005C00017032223D1F020913903203240F021E09B
:1005D00030E0FC013383228380E090E015C08091FD
:1005E0001803E82FF0E0E75EFC4F998190838F5F5E
:1005F000809318038093390305C061E0CE01019612
:100600000E94570281E090E00F90DF91CF91089512
:1006100080E090E008950E94C01F0F931F93CF9336
:10062000DF93EC0188819981009729F02A813B8131
:100630002617370788F48B016F5F7F4F0E94FA1EE1
:10064000009761F0998388831B830A832C813D8105
:10065000232B11F4FC01108281E001C080E0DF91C6
:10066000CF911F910F910895EF92FF920F931F93D7
:10067000CF93DF9300D0CDB7DEB78C0169831A82A8
:10068000FC01E480F580FFEFEF1AFF0AB7010E943A
:100690000D03882381F0F8012081318184819581C7
:1006A000BE016F5F7F4F820F931F0E94CE1FF80124
:1006B000F582E48281E00F900F90DF91CF911F913E
:1006C0000F91FF90EF9008951F920F920FB60F9227
:1006D00011242F933F934F935F936F937F938F9347
:1006E0009F93AF93BF93EF93FF938EE393E00E94AA
:1006F0001001FF91EF91BF91AF919F918F917F91E9
:100700006F915F914F913F912F910F900FBE0F907E
:100710001F9018951F920F920FB60F9211242F93CE
:100720008F939F93EF93FF93E0914E03F0914F03CC
:100730008081E0915403F091550382FD12C09081B5
:10074000809157038F5F8F7320915803821751F068
:10075000E0915703F0E0E25CFC4F958F80935703E4
:1007600001C08081FF91EF919F918F912F910F9008
:100770000FBE0F901F9018951F920F920FB60F92F9
:1007800011242F933F934F935F936F937F938F9396
:100790009F93AF93BF93EF93FF93E0914202F09149
:1007A0004302309709F451C0968DA685B78585859B
:1007B00091FF04C09C91892329F447C09C9189230F
:1007C00009F043C0A389B4899C91858980958923C8
:1007D0008C93868997890197F1F7608D718DA68535
:1007E000B785558538E020E0CB010197F1F7822FDE
:1007F00090E095958795282F4C91452309F0206826
:10080000315091F7868D81FD20958091410290E0D5
:1008100001968F73992730914002381749F0A091C3
:100820004102B0E0A257BD4F2C938093410203C018
:10083000868D8160868F828D938D0197F1F7A389D4
:10084000B4899C918589892B8C93FF91EF91BF91FD
:10085000AF919F918F917F916F915F914F913F9158
:100860002F910F900FBE0F901F901895E0914202AC
:10087000F0914302E817F90769F4A389B4899C91C0
:100880008589809589238C931092430210924202AD
:1008900081E0089580E00895CF92DF92EF92FF9279
:1008A000CF93DF93EC01603282E078070CF03DC01B
:1008B00077FD06C0653B71052CF064EB70E002C06B
:1008C00060E070E0898128E830E06901C81AD10849
:1008D00087FDD394CC0CDD1CCC0CDD1C0D2C000C46
:1008E000EE08FF088A8128E532E0281B310987FDE0
:1008F0003395220F331F220F331FC901330FAA0B69
:10090000BB0B9C01AD012C193D094E095F09DB01B0
:100910000E94BA1B24EB30E040E050E00E94901BA4
:10092000C20ED31EE41EF51EB60138813C3080F5A0
:10093000298188E890E0821B910927FD9395880F13
:10094000991F880F991F6817790784F08A8148E5F5
:1009500052E0481B510987FD5395440F551F440F22
:10096000551FCB01461757070CF4CA010297880F91
:10097000991F4FB7F894232F30E0F901EE0FFF1FB6
:100980002E0F3F1FF901E552FC4F928381834FBF29
:10099000DF91CF91FF90EF90DF90CF9008951F935C
:1009A000CF93DF93EC01162F88818C3008F04EC076
:1009B00061E0812F0E94AA098881E82FF0E09F0161
:1009C000220F331FE20FF31FE552FC4F1F7390817C
:1009D000907C192B108319821A826CE00E94901D62
:1009E0009CE0899FB001112440E050E09B01240F5E
:1009F000351FF901EE0FFF1F2E0F3F1FF901E552C2
:100A0000FC4F908196FD16C04F5F5F4F4C305105F3
:100A100069F781110FC01092800082E080938100FD
:100A20001092850010928400B19A80916F008260CC
:100A300080936F00E881F0E0CF01880F991FE80FE5
:100A4000F91FE552FC4F8081806480838881DF91AB
:100A5000CF911F9108951F920F920FB60F921124FC
:100A60002F933F934F935F936F937F938F939F93B6
:100A7000AF93BF93EF93FF9380918D0287FF05C0E3
:100A800010928500109284001BC020918D02022ECE
:100A9000000C330B8091FF0390E02817390784F492
:100AA00080918D02082E000C990BFC01EE0FFF1FA8
:100AB0008E0F9F1FFC01E552FC4F808186FD15C003
:100AC00080918D028F5F80938D0220918D02022E86
:100AD000000C330B8091FF0390E028173907C4F412
:100AE00080918D028C3064F113C080918D02082EAC
:100AF000000C990BFC01EE0FFF1F8E0F9F1FFC01D6
:100B0000E552FC4F808160E08F730E947B09D8CF53
:100B10008091840090918500049680349C4918F45B
:100B200080E49CE905C08091840090918500049642
:100B300090938900809388008FEF80938D023BC053
:100B4000209184003091850080918D02082E000C48
:100B5000990BFC01EE0FFF1F8E0F9F1FFC01E5524A
:100B6000FC4F81819281820F931F90938900809323
:100B7000880080918D02082E000C990BFC01EE0F6D
:100B8000FF1F8E0F9F1FFC01E552FC4F808186FFE7
:100B900012C080918D02082E000C990BFC01EE0F03
:100BA000FF1F8E0F9F1FFC01E552FC4F808161E00B
:100BB0008F730E947B09FF91EF91BF91AF919F913D
:100BC0008F917F916F915F914F913F912F910F90F6
:100BD0000FBE0F901F9018951F920F920FB60F9295
:100BE00011242F933F934F935F936F937F938F9332
:100BF0009F93AF93BF93EF93FF938091B900887F4A
:100C0000803609F49CC068F5883209F45BC090F422
:100C1000803109F454C038F4882309F4F6C08830D0
:100C200009F44DC0F6C0883109F44CC0803209F493
:100C30005DC0EFC0803409F468C048F4803309F423
:100C400055C0883309F0E5C080931403D8C08035BF
:100C500009F44FC0883509F45DC0883409F0D9C063
:100C6000D6C0883909F4C7C0A8F4883709F467C02A
:100C700038F4883609F463C0803709F460C0C9C00D
:100C8000883809F4B8C0803909F45FC0803809F0A9
:100C9000C0C05BC0803B09F486C038F4803A09F4D8
:100CA00066C0883A09F47FC0B4C0803C09F4A7C08C
:100CB000883C09F4A4C0883B09F48AC0AAC080918A
:100CC000F10210C09091130380911203981770F5F0
:100CD000E091130381E08E0F80931303F0E0EE5058
:100CE000FD4F80818093BB0085EC86C08093140308
:100CF0008EC0E091130381E08E0F809313038091E7
:100D0000BB00F0E0EE50FD4F808390911303809183
:100D100012036EC0E091130381E08E0F80931303E2
:100D20008091BB00F0E0EE50FD4F80838091150371
:100D300081116DC081E08093F00284EA61C083E09C
:100D40008093160310928C02CFCF80918C02803258
:100D500008F051C0E0918C0281E08E0F80938C02EC
:100D60008091BB00F0E0E459FD4F8083BDCF85EC5E
:100D70008093BC001092160380918C02803230F474
:100D8000E0918C02F0E0E459FD4F108260918C02FA
:100D900070E0E0914402F09145028CE692E0099502
:100DA00010928C0236C084E08093160310926B027E
:100DB00010926A02E0914602F091470209958091F3
:100DC0006A02811105C081E080936A0210924A0292
:100DD000E0916B0281E08E0F80936B02F0E0E65BA6
:100DE000FD4F80818093BB0090916B0280916A02DD
:100DF000981708F479CF85E88093BC000AC085EC89
:100E00008093BC001092160304C0109214030E9439
:100E10004D02FF91EF91BF91AF919F918F917F9183
:100E20006F915F914F913F912F910F900FBE0F9057
:100E30001F9018950F931F93CF93DF93D82F162FE2
:100E4000C4E6C81B062F047062FF8DE20E941C0DD1
:100E5000011102C087E301C08C2F0E94060D012FF3
:100E6000027011FD02C08DE201C08D2F0E94F00CB6
:100E7000011102C087E301C08C2F0E94DA0C012F00
:100E8000017010FD02C08DE201C08D2F0E94C40CC4
:100E9000011102C087E301C08C2FDF91CF911F9118
:100EA0000F910C94AE0CCF92DF92EF92FF921F93B2
:100EB000CF93DF93182FC82F880FDD0B2CE130E084
:100EC000DE010E94BE1D24E6C22ED12CE12CF12CA5
:100ED000A70196010E94901BCA01B901645B7F4F74
:100EE0008F4F9F4F88E294E00E944C04A4E6A11B20
:100EF0000A2E000CBB0B26E430E00E94BE1DA701A9
:100F000096010E94901BCA01B9016C5A7E4F8F4F07
:100F10009F4F8AE00E94B20826E430E0DE010E9482
:100F2000BE1DA70196010E94901BCA01B9016C5A0F
:100F30007E4F8F4F9F4F8DE0DF91CF911F91FF909C
:100F4000EF90DF90CF900C94B2080F931F93CF9344
:100F5000DF93D82F162FC4E6C81B062F047062FF3C
:100F60008DE20E94A00D011102C087E301C08C2F09
:100F70000E948A0D012F027011FD02C08DE201C096
:100F80008D2F0E94740D011102C087E301C08C2FC8
:100F90000E945E0D012F017010FD02C08DE201C0A4
:100FA0008D2F0E94480D011102C087E301C08C2FD4
:100FB000DF91CF911F910F910C94320D282F30911A
:100FC0003903313208F04AC0809116038111FCCFF9
:100FD00090913A0442E040931603209315032FEFBB
:100FE000209314031092130330931203E9E1F3E00A
:100FF000A2EFB2E020E0321721F041914D932F5F34
:10100000FACF1092F1022091F102990F922B909356
:10101000F1029091F002913061F41092F0029091FF
:10102000F1029093BB009091BC0093FDF8CF95EC3A
:1010300001C095EE9093BC00909116039230E1F3BD
:10104000909114039F3F79F080911403803241F016
:1010500080911403803331F084E005C081E003C047
:1010600082E001C083E010921803109239031092BD
:1010700017030895DC01ED91FC910190F081E02DC2
:1010800009940F931F93CF93DF93EC018B010E9480
:101090000D032881398181110DC02115310519F009
:1010A000C9010E94711E198218821D821C821B8236
:1010B0001A8207C01D830C836FE971E0C9010E9489
:1010C000CE1FCE01DF91CF911F910F910895FC01AA
:1010D00011821082138212821582148260E070E005
:1010E0000C9441082FB7F89480913A0390913B03F8
:1010F000A0913C03B0913D032FBF80930E049093C9
:101100000F04A0931004B093110486E094E00E94B1
:101110002C0297FF26C02FB7F89480913A03909144
:101120003B03A0913C03B0913D032FBF40910E04BF
:1011300050910F046091100470911104841B950B61
:10114000A60BB70B40910A0450910B0460910C045C
:1011500070910D0484179507A607B707B0F28FEFBB
:101160009FEF08950F931F93CF93DF938B01C7E3F6
:10117000D4E0988121E02093170390933A041092D1
:10118000180310923903A981BA8124E0829FC0011B
:101190001124BC016A5F7F4FED91FC911197019082
:1011A000F081E02DCD01099560E070E089819A81A0
:1011B0000E943A0860E070E089819A810E943A08B2
:1011C000B80189819A810E943A08612F70E0898173
:1011D0009A810E943A0881E0DF91CF911F910F918F
:1011E0000C94DE0786E480937C0080917A00806412
:1011F00080937A0080917A0086FDFCCF8091780000
:101200002091790090E0922B0895CF93DF9300977F
:1012100079F0FC0101900020E9F73197AF01481BFC
:10122000590BBC018EE393E00E949F00EC0102C0C9
:10123000C0E0D0E042E050E06DE971E08EE393E081
:101240000E949F008C0F9D1FDF91CF9108951F93E7
:10125000CF93DF93162FC7E3D4E0988121E020934A
:10126000170390933A041092180310923903A9813E
:10127000BA81ED91FC9111970190F081E02D682FDA
:10128000CD01099589819A81DC01ED91FC91019054
:10129000F081E02D612F099581E0DF91CF911F91C1
:1012A0000C94DE07833081F028F4813099F082308D
:1012B000A1F008958730A9F08830B9F08430D1F4D6
:1012C000809180008F7D03C0809180008F77809314
:1012D0008000089584B58F7702C084B58F7D84BD6A
:1012E00008958091B0008F7703C08091B0008F7D0A
:1012F0008093B00008951F93CF93DF93282F30E0A1
:10130000F901EC56FF4F8491F901E053FF4FD4915E
:10131000F901E454FF4FC491CC23C1F0162F811181
:101320000E945209EC2FF0E0EE0FFF1FEE54FF4F2A
:10133000A591B4919FB7F894111104C08C91D095E8
:10134000D82302C0EC91DE2BDC939FBFDF91CF91BD
:101350001F910895CF93DF9390E0FC01E053FF4F7E
:101360002491FC01E454FF4F8491882361F190E0C3
:10137000880F991FFC01E657FF4FC591D491FC01DE
:10138000EE54FF4FA591B491611109C09FB7F89435
:101390008881209582238883EC912E230BC06230B4
:1013A00061F49FB7F8948881322F30958323888326
:1013B000EC912E2B2C939FBF06C08FB7F894E88139
:1013C0002E2B28838FBFDF91CF9108958F929F920C
:1013D000AF92BF92CF92DF92EF92FF926B017C01AE
:1013E0000E94B60D4B015C01C114D104E104F1046B
:1013F000F1F00E94B60DDC01CB0188199909AA0908
:10140000BB09883E9340A105B10570F321E0C21AE3
:10141000D108E108F10888EE880E83E0981EA11C2F
:10142000B11CC114D104E104F10419F7DDCFFF9020
:10143000EF90DF90CF90BF90AF909F908F900895E6
:10144000CF93DF9326E636E646E65FE30E94D21AA4
:101450009B01AC0160E27CEB8EEB95E40E94971C53
:1014600020E030E040E85FE30E942A1C20E030E00A
:1014700040E05FE30E942B1C0E94381D0E94091D62
:10148000D62F8091370491E09093170380933A040C
:101490001092180310923903809138049091390406
:1014A000DC01ED91FC910190F081E02D60E0099567
:1014B00081E00E94DE07809137049091160391111C
:1014C000FCCF91E090931603909315032FEF209398
:1014D000140310921303109212039093F10290914F
:1014E000F102880F892B8093F1028091F002813004
:1014F00061F41092F0028091F1028093BB00809120
:10150000BC0083FDF8CF85EC01C085EE8093BC0064
:10151000809116038130E1F380911303811103C0A0
:101520009091130301C091E0A2EFB2E0E0EDF2E090
:1015300080E0891721F02D9121938F5FFACF1092CF
:10154000CF028093CE028091380490913904DC015F
:10155000ED91FC910284F385E02D0995C82F682F49
:101560006F76606180E00E9427096D2F8EEF0E94E8
:1015700027096C2F80E00E94270965E070E080E079
:1015800090E00E94E6096C2F606A80E0DF91CF91C5
:101590000C942709CF92DF92EF92FF921F93CF9383
:1015A000DF93182FC4E6C81B0C2E000CDD0B9E0128
:1015B000A4EEBFEF0E94B61D24E6C22ED12CE12C72
:1015C000F12CA70196010E94901BCA01B90168592C
:1015D0007F4F8F4F9F4F85E294E00E944C04212F54
:1015E000110F330BAAEBBFEF0E94B61DA7019601A6
:1015F0000E94901BCA01B90166567E4F8F4F9F4FC4
:1016000085E00E94B2089E01AAEBBFEF0E94B61DC2
:10161000A70196010E94901BCA01B90166567E4F30
:101620008F4F9F4F82E0DF91CF911F91FF90EF90FE
:10163000DF90CF900C94B20860E08CE00E947B09B0
:1016400010923B0410923C0410923D0410923E0410
:101650000895CF92DF92EF92FF920F931F93CF9353
:10166000DF9300D000D000D0CDB7DEB78EE393E09B
:101670000E94FA00892BA9F18EE393E00E94D80022
:10168000182F8A3071F18D3061F1CE0101960E94E0
:101690006708612FCE0101960E94340389819A81E7
:1016A000009729F00E94301A6B017C0103C0C12C05
:1016B000D12C760108E0C016D10478F460E070E027
:1016C00080E094E00E9441086C2D80E094E00E944C
:1016D000340380EA91E00E94050989819A810E9481
:1016E000711E86E094E00E941402892B09F445C023
:1016F000CE0101960E9467080E94720897FD06C0FD
:10170000682FCE0101960E943403F6CF8091000429
:10171000909101040097C9F069817A816115710582
:1017200091F040910204509103042D813E814217B3
:10173000530748F00E94CE1F8D819E81909305042F
:101740008093040416C00E94711E89819A8190932F
:101750000104809300048B819C8190930304809307
:1017600002048D819E8190930504809304041A8263
:10177000198289819A810E94711E8FB7F894C09056
:101780003A03D0903B03E0903C03F0903D038FBFC1
:10179000C0924304D0924404E0924504F09246047F
:1017A00080913B0490913C04A0913D04B0913E0493
:1017B0000097A105B105A9F040913F045091400464
:1017C000609141047091420497018601041B150B3E
:1017D000260B370B081719072A073B0710F00E9442
:1017E0001C0B80913F0490914004A0914104B09162
:1017F0004204A7019601281B390B4A0B5B0BDA0147
:10180000C90180319742A105B10508F457C0C092C3
:101810003F04D0924004E0924104F09242040E94BE
:10182000F208BC01990F880B990B0E94731A26E6E7
:1018300036E646E051E40E94D21A20E030E040E86B
:101840005AE30E94D21A6B017C012FE832EC45ED7D
:1018500050E40E946C1A87FF13C081E090E09093DF
:101860003F0280933E0282EC91E00E94050961E014
:101870008CE00E947B098CE291E0A0E0B0E016C011
:101880002FE135E843EE50E4C701B6010E946C1A1F
:1018900087FF14C086EE91E00E94050961E08CE0AC
:1018A0000E947B0988E790E0A0E0B0E080933B04D1
:1018B00090933C04A0933D04B0933E0480910001BA
:1018C00090910101079719F180913E0290913F029A
:1018D0000197E9F08091040490910504892B19F196
:1018E000E0910004F0910104309711F0808101C073
:1018F00080E0082E000C990B9093490280934802D7
:1019000060E070E080E094E00E9441080CC08091AB
:10191000480290914902079731F087E090E0909358
:1019200049028093480226960FB6F894DEBF0FBE98
:10193000CDBFDF91CF911F910F91FF90EF90DF907E
:10194000CF90089561E08CE00E947B0960E570E033
:1019500080E090E00E94E6090C941C0B282F880F71
:10196000330BA8E3BFEF0E94B61D24E630E040E051
:1019700050E00E94901BCA01B90165527E4F8F4F03
:101980009F4F8FE00C94B208A82F880FBB0B22E268
:1019900031E00E94BE1D24E630E040E050E00E94AD
:1019A000901BCA01B9016A517F4F8F4F9F4F8EE044
:1019B0000C94B208282F880F330BA8E3BFEF0E94C6
:1019C000B61D24E630E040E050E00E94901BCA01C2
:1019D000B90165527E4F8F4F9F4F8CE00C94B20837
:1019E000A82F880FBB0B22E231E00E94BE1D24E627
:1019F00030E040E050E00E94901BCA01B9016A51FA
:101A00007F4F8F4F9F4F8BE00C94B208A82F880F09
:101A1000BB0B28EC30E00E94BE1D24E630E040E025
:101A200050E00E94901BCA01B9016D5E7E4F8F4F3E
:101A30009F4F88E00C94B208282F880F330BAEED2F
:101A4000BEEF0E94B61D24E630E040E050E00E9468
:101A5000901BCA01B901685F7D4F8F4F9F4F89E08E
:101A60000C94B208A82F880FBB0B28EC30E00E9422
:101A7000BE1D24E630E040E050E00E94901BCA0109
:101A8000B9016D5E7E4F8F4F9F4F80E00C94B2087E
:101A9000282F880F330BAEEDBEEF0E94B61D24E653
:101AA00030E040E050E00E94901BCA01B901685F3D
:101AB0007D4F8F4F9F4F81E00C94B208A82F880F65
:101AC000BB0B28EC30E00E94BE1D24E630E040E075
:101AD00050E00E94901BCA01B9016D5E7E4F8F4F8E
:101AE0009F4F83E00C94B208282F880F330BAEED84
:101AF000BEEF0E94B61D24E630E040E050E00E94B8
:101B0000901BCA01B901685F7D4F8F4F9F4F84E0E2
:101B10000C94B208282F880F330BA8E3BFEF0E9464
:101B2000B61D24E630E040E050E00E94901BCA0160
:101B3000B90165527E4F8F4F9F4F87E00C94B208DA
:101B4000A82F880FBB0B22E231E00E94BE1D24E6C5
:101B500030E040E050E00E94901BCA01B9016A5198
:101B60007F4F8F4F9F4F86E00C94B2083FB7F89499
:101B70008091480490914904A0914A04B0914B048B
:101B800026B5A89B05C02F3F19F00196A11DB11DD8
:101B90003FBFBA2FA92F982F8827820F911DA11D13
:101BA000B11DBC01CD0142E0660F771F881F991F50
:101BB0004A95D1F708951F920F920FB60F921124F4
:101BC0002F933F938F939F93AF93BF9380913A034B
:101BD00090913B03A0913C03B0913D0330914704A9
:101BE00023E0230F2D3720F40196A11DB11D05C060
:101BF00026E8230F0296A11DB11D20934704809370
:101C00003A0390933B03A0933C03B0933D03809130
:101C1000480490914904A0914A04B0914B04019664
:101C2000A11DB11D8093480490934904A0934A04D8
:101C3000B0934B04BF91AF919F918F913F912F91A2
:101C40000F900FBE0F901F901895789484B5826006
:101C500084BD84B5816084BD85B5826085BD85B550
:101C6000816085BD80916E00816080936E001092CE
:101C70008100809181008260809381008091810049
:101C800081608093810080918000816080938000DA
:101C90008091B10084608093B1008091B000816038
:101CA0008093B00080917A00846080937A00809164
:101CB0007A00826080937A0080917A0081608093BC
:101CC0007A0080917A00806880937A001092C10037
:101CD000E0914E03F0914F0382E08083E0914A034C
:101CE000F0914B031082E0914C03F0914D0380E1A1
:101CF000808310925603E0915203F091530386E0E3
:101D00008083E0915003F091510380818061808352
:101D1000E0915003F0915103808188608083E091CD
:101D20005003F0915103808180688083E0915003DB
:101D3000F091510380818F7D80838FE391E00E9439
:101D4000050961E08CE00E94AA090E94F208BC012A
:101D5000990F880B990B0E94731A26E636E646E027
:101D600051E40E94D21A20E030E040E85AE30E9499
:101D7000D21A2FE832EC45ED50E40E946C1A87FF2E
:101D80001BC08FE691E00E94050981E090E09093EE
:101D90003F0280933E0287E090E0909301018093A0
:101DA00000010E94A20C68E270E080E090E00E94D6
:101DB000E6090E94A20CE4C01092CF021092CE025B
:101DC00010921803109239031092160381E0809349
:101DD00015031092F00261E082E10E947B0961E04C
:101DE00083E10E947B098091B9008E7F8093B900C6
:101DF0008091B9008D7F8093B90088E48093B8000A
:101E000085E48093BC008FE792E090934702809333
:101E1000460280E892E0909345028093440260E895
:101E200080E00E9427096AE070E080E090E00E9474
:101E3000E60960E070E08AE794E40E94200A60E02E
:101E400070E080E792E40E94200A60E471E080E0A4
:101E500090E00E94E60963E070E088E294E00E946E
:101E6000CF0464E170E080E090E00E94E6096BE05E
:101E700070E085E294E00E94CF0464E170E080E0CD
:101E800090E00E94E60982E30E94530782E30E94E9
:101E9000CA0A67E084E60E941A0767E084E60E94A7
:101EA000A507109221041092200410921F04109292
:101EB0001E0410921D0410921C048DE991E0909371
:101EC00023048093220490911204963108F048C0B4
:101ED0002DEB30E030931D0420931C042BE931E0FE
:101EE00030931F0420931E042CE231E03093210430
:101EF0002093200440916800983010F40C94D3187B
:101F000031E09E3008F430E021E0822F01C0880FDC
:101F10003A95EAF7842B80936800983010F40C947B
:101F2000D6189E3010F40C94DA18963110F40C94F4
:101F3000DE1820E030E030931A0420931904983022
:101F400010F00C94E21881E001C0880F9A95EAF72E
:101F500080931B0480912204909123040197F1F750
:101F60008091200490912104892B11F00C94F21897
:101F70000E94A20C64EF71E080E090E00E94E6090C
:101F800012E3C12ED12CE12CF12C82E0282E312C31
:101F900080910201882311F40C94CF180E94290B20
:101FA000E0910001F09101013196E930F10510F066
:101FB0000C94CF18EC5CFF4F0C94B01DE0914802DC
:101FC000F0914902E830F10510F00C94CF18E35C71
:101FD000FF4F0C94B01D82E30E94530782E30E94DE
:101FE000CA0A67E08DE20E941A0767E08DE20E944C
:101FF000A5070C94CF18412C512C3201C2E30E944A
:10200000290B8C2F0E9453078C2F0E94CA0AC301F0
:10201000B201A70196010E94901B49015A018DE26D
:10202000880E911CA11CB11C65E0882D0E941A0726
:1020300062E0882D0E94A507CE5F9EE6490E511CE6
:10204000611C711CCC34D9F6D1EA4D2EDAEF5D2E2D
:1020500066246A94762CCBE40E94290B8C2F0E9474
:1020600053078C2F0E94CA0AC301B201A70196012F
:102070000E94901B49015A01E4E68E0E911CA11C9E
:10208000B11C65E0882D0E941A0762E0882D0E942D
:10209000A507CE5FFEE64F1A510861087108C536E4
:1020A000D9F6412C512C3201C4E60E94290B8C2F09
:1020B0000E9453078C2F0E94CA0AC301B2012EEC62
:1020C0003FEF4FEF5FEF0E94901B49015A018DE2F5
:1020D000880E911CA11CB11CD82DD23514F4882D6A
:1020E00001C082E562E00E941A07D23514F4882DFF
:1020F00001C082E565E00E94A507C2509EE6491A2C
:10210000510861087108C23381F6412C512C32010B
:102110000E94290B8C2F0E9453078C2F0E94CA0A01
:10212000C301B2012EEC3FEF4FEF5FEF0E94901B17
:1021300049015A01E4E68E0E911CA11CB11CD82D58
:10214000D23514F4882D01C082E562E00E941A079E
:10215000D23514F4882D01C082E565E00E94A50700
:10216000C250FEE64F0E511C611C711CCE3F81F621
:1021700081E090E0C3C0412C512C3201C2E30E94A7
:10218000290B8C2F0E9453078C2F0E94CA0AC3016F
:10219000B2012EEC3FEF4FEF5FEF0E94901B490121
:1021A0005A018DE2880E911CA11CB11C65E0882D9E
:1021B0000E941A0762E0882D0E94A507C2509EE681
:1021C000491A510861087108C831C9F6CFE54C2E8B
:1021D000C5E05C2E612C712CC9E10E94290B8C2F6B
:1021E0000E9453078C2F0E94CA0AC301B2012EEC31
:1021F0003FEF4FEF5FEF0E94901B49015A01E4E669
:102200008E0E911CA11CB11C65E0882D0E941A073E
:1022100062E0882D0E94A507C250FEE64F0E511CB9
:10222000611C711CCF3FC9F6412C512C3201C0E01A
:102230000E94290B8C2F0E9453078C2F0E94CA0AE0
:10224000C301B201A70196010E94901B49015A01E6
:102250008DE2880E911CA11CB11CD82DD23514F42E
:10226000882D01C082E562E00E941A07D23514F47D
:10227000882D01C082E565E00E94A507CE5F9EE63D
:10228000490E511C611C711CC23391F6412C512C1A
:1022900032010E94290B8C2F0E9453078C2F0E9421
:1022A000CA0AC301B201A70196010E94901B49010D
:1022B0005A01E4E68E0E911CA11CB11CD82DD2351A
:1022C00014F4882D01C082E562E00E941A07D2351D
:1022D00014F4882D01C082E565E00E94A507CE5F59
:1022E000FEE64F1A510861087108C63691F6309221
:1022F00001012092000153C783E090E09093010117
:10230000809300014CC7E4E0F0E0C7C0412C512CA1
:102310003201C2E3D4E60E94290B8D2F8C1B0E9450
:1023200053078C2F0E94CA0AC301B201A70196016C
:102330000E94901B49015A01FDE28F0E911CA11CC5
:10234000B11C65E0882D0E941A0762E0882D0E946A
:10235000A507CE5F2EE6420E511C611C711CCC34C9
:10236000D1F6B1EA4B2EBAEF5B2E66246A94762C36
:10237000CBE4D4E60E94290B8D2F8C1B0E945307BF
:102380008C2F0E94CA0AC301B201A70196010E94C4
:10239000901B49015A0184E6880E911CA11CB11CB6
:1023A00065E0882D0E941A0762E0882D0E94A5072B
:1023B000CE5F9EE6491A510861087108C536D1F60C
:1023C000412C512C3201C4E614E60E94290B812FC6
:1023D0008C1B0E9453078C2F0E94CA0AC301B201B2
:1023E0002EEC3FEF4FEF5FEF0E94901B49015A0127
:1023F000EDE28E0E911CA11CB11CD82DD23514F427
:10240000882D01C082E562E00E941A07D23514F4DB
:10241000882D01C082E565E00E94A507C250FEE656
:102420004F1A510861087108C23379F6412C512CBA
:10243000320114E60E94290B812F8C1B0E94530746
:102440008C2F0E94CA0AC301B2012EEC3FEF4FEF5E
:102450005FEF0E94901B49015A0184E6880E911C8F
:10246000A11CB11CD82DD23514F4882D01C082E5F1
:1024700062E00E941A07D23514F4882D01C082E56B
:1024800065E00E94A507C2509EE6490E511C611CE2
:10249000711CCE3F79F6E5E0F0E0F0930101E093A6
:1024A00000017DC6412C512C3201C2E3D4E60E94CA
:1024B000290B8C2F0E9453078D2F8C1B0E94CA0A58
:1024C000C301B201A70196010E94901B49015A0164
:1024D000FDE28F0E911CA11CB11C65E0882D0E94AD
:1024E0001A0762E0882D0E94A507CE5F2EE6420EF5
:1024F000511C611C711CCC34D1F6A1EA4A2EAAEF02
:102500005A2E66246A94762CCBE4D4E60E94290BDA
:102510008C2F0E9453078D2F8C1B0E94CA0AC30167
:10252000B201A70196010E94901B49015A0184E65D
:10253000880E911CA11CB11C65E0882D0E941A0711
:1025400062E0882D0E94A507CE5F9EE6491A5108D9
:1025500061087108C536D1F6412C512C3201C4E610
:1025600014E60E94290B8C2F0E945307812F8C1B8D
:102570000E94CA0AC301B2012EEC3FEF4FEF5FEF9A
:102580000E94901B49015A01EDE28E0E911CA11C84
:10259000B11CD82DD23514F4882D01C082E562E03B
:1025A0000E941A07D23514F4882D01C082E565E037
:1025B0000E94A507C250FEE64F1A51086108710833
:1025C000C23379F6412C512C320114E60E94290BBA
:1025D0008C2F0E945307812F8C1B0E94CA0AC301B3
:1025E000B2012EEC3FEF4FEF5FEF0E94901B4901CD
:1025F0005A0184E6880E911CA11CB11CD82DD2353D
:1026000014F4882D01C082E562E00E941A07D235D9
:1026100014F4882D01C082E565E00E94A507C25030
:102620009EE6490E511C611C711CCE3F79F6E6E016
:10263000F0E033CF812C912C540182E30E945307A8
:1026400082E30E94CA0AC501B401A70196010E9453
:10265000901B29013A01FDE24F0E511C611C711CB7
:1026600067E0842D0E941A0767E0842D0E94A50769
:1026700027E3820E911CA11CB11C85EF88168AE00D
:102680009806A104B104C9F6E7E0F0E006CF809116
:10269000480290914902412C512C3201C0E001972F
:1026A00009F0C7C00E94290B8C2F0E9453078C2F62
:1026B0000E94CA0AC301B201A70196010E94901BA1
:1026C00049015A01FDE28F0E911CA11CB11CD82DAD
:1026D000D23514F4882D01C082E565E00E941A0706
:1026E000D23514F4882D01C082E562E00E94A5076E
:1026F000CE5F2EE6420E511C611C711CC23391F656
:10270000412C512C32010E94290B8C2F0E9453071F
:102710008C2F0E94CA0AC301B201A70196010E9430
:10272000901B49015A0184E6880E911CA11CB11C22
:10273000D82DD23514F4882D01C082E565E00E94C1
:102740001A07D23514F4882D01C082E562E00E9498
:10275000A507CE5F9EE6491A510861087108C63682
:1027600091F6412C512C3201C4E60E94290B8C2F8A
:102770000E9453078C2F0E94CA0AC301B2012EEC9B
:102780003FEF4FEF5FEF0E94901B49015A01EDE2CE
:102790008E0E911CA11CB11CD82DD23514F4882D9D
:1027A00001C082E562E00E941A07D23514F4882D38
:1027B00001C082E565E00E94A507C250FEE64F1AFF
:1027C000510861087108C23381F6412C512C320145
:1027D0000E94290B8C2F0E9453078C2F0E94CA0A3B
:1027E000C301B2012EEC3FEF4FEF5FEF0E94901B51
:1027F00049015A0184E6880E911CA11CB11CD82DF8
:10280000D23514F4882D01C082E562E00E941A07D7
:10281000D23514F4882D01C082E565E00E94A50739
:10282000C2509EE6490E511C611C711CCE3F81F6C0
:10283000B6C40E94290B8C2F0E9453078C2F0E9434
:10284000CA0AC301B201A70196010E94901B490167
:102850005A01EDE28E0E911CA11CB11C65E0882D81
:102860000E941A0762E0882D0E94A507CE5FFEE64F
:102870004F0E511C611C711CCA31D9F6F1EA4F2E62
:10288000FAEF5F2E66246A94762CC9E10E94290B28
:102890008C2F0E9453078C2F0E94CA0AC301B201D9
:1028A000A70196010E94901B49015A0184E6880EF7
:1028B000911CA11CB11C65E0882D0E941A0762E0E2
:1028C000882D0E94A507CE5F9EE6491A510861082F
:1028D0007108C333D9F636C18091480290914902FC
:1028E000412C512C3201C4E6029709F0C7C00E9466
:1028F000290B8C2F0E9453078C2F0E94CA0AC301F8
:10290000B2012EEC3FEF4FEF5FEF0E94901B4901A9
:102910005A01EDE28E0E911CA11CB11CD82DD235AE
:1029200014F4882D01C082E565E00E941A07D235B3
:1029300014F4882D01C082E562E00E94A507C25010
:10294000FEE64F1A510861087108C23381F6412C26
:10295000512C32010E94290B8C2F0E9453078C2F7F
:102960000E94CA0AC301B2012EEC3FEF4FEF5FEFA6
:102970000E94901B49015A0184E6880E911CA11CFB
:10298000B11CD82DD23514F4882D01C082E565E044
:102990000E941A07D23514F4882D01C082E562E046
:1029A0000E94A507C2509EE6490E511C611C711C75
:1029B000CE3F81F6412C512C3201C0E00E94290B00
:1029C0008C2F0E9453078C2F0E94CA0AC301B201A8
:1029D000A70196010E94901B49015A01EDE28E0E5B
:1029E000911CA11CB11CD82DD23514F4882D01C026
:1029F00082E562E00E941A07D23514F4882D01C0E6
:102A000082E565E00E94A507CE5FFEE64F0E511CF1
:102A1000611C711CC23391F6412C512C32010E9471
:102A2000290B8C2F0E9453078C2F0E94CA0AC301C6
:102A3000B201A70196010E94901B49015A0184E648
:102A4000880E911CA11CB11CD82DD23514F4882DF0
:102A500001C082E562E00E941A07D23514F4882D85
:102A600001C082E565E00E94A507CE5F9EE6491A97
:102A7000510861087108C63691F691C30E94290B6E
:102A80008C2F0E9453078C2F0E94CA0AC301B201E7
:102A90002EEC3FEF4FEF5FEF0E94901B49015A0170
:102AA000EDE28E0E911CA11CB11C65E0882D0E94E8
:102AB0001A0762E0882D0E94A507C250FEE64F1A51
:102AC000510861087108CA34C9F6EFE54E2EE5E0F9
:102AD0005E2E612C712CCBE40E94290B8C2F0E945E
:102AE00053078C2F0E94CA0AC301B2012EEC3FEF9C
:102AF0004FEF5FEF0E94901B49015A0184E6880E58
:102B0000911CA11CB11C65E0882D0E941A0762E08F
:102B1000882D0E94A507C2509EE6490E511C611CDB
:102B2000711CC133C9F60EC08091480290914902D0
:102B3000039741F434C3809148029091490204976D
:102B400009F42DC3109201011092000128C3809155
:102B5000480290914902412C512C3201C0E0059766
:102B600009F0CFC014E60E94290B812F8C1B0E9414
:102B700053078C2F0E94CA0AC301B201A701960114
:102B80000E94901B49015A01EDE28E0E911CA11C7E
:102B9000B11CD82DD23514F4882D01C082E565E032
:102BA0000E941A07D23514F4882D01C082E562E034
:102BB0000E94A507CE5FFEE64F0E511C611C711CE2
:102BC000C23389F6412C512C320114E60E94290BA4
:102BD000812F8C1B0E9453078C2F0E94CA0AC301AD
:102BE000B201A70196010E94901B49015A0184E697
:102BF000880E911CA11CB11CD82DD23514F4882D3F
:102C000001C082E565E00E941A07D23514F4882DD0
:102C100001C082E562E00E94A507CE5F9EE6491AE8
:102C2000510861087108C63689F6412C512C3201D1
:102C3000C4E614E60E94290B812F8C1B0E945307C7
:102C40008C2F0E94CA0AC301B2012EEC3FEF4FEF56
:102C50005FEF0E94901B49015A01EDE28E0E911C1C
:102C6000A11CB11CD82DD23514F4882D01C082E5E9
:102C700062E00E941A07D23514F4882D01C082E563
:102C800065E00E94A507C250FEE64F1A5108610890
:102C90007108C23379F6412C512C320114E60E949E
:102CA000290B812F8C1B0E9453078C2F0E94CA0A6C
:102CB000C301B2012EEC3FEF4FEF5FEF0E94901B7C
:102CC00049015A0184E6880E911CA11CB11CD82D23
:102CD000D23514F4882D01C082E562E00E941A0703
:102CE000D23514F4882D01C082E565E00E94A50765
:102CF000C2509EE6490E511C611C711CCE3F79F6F4
:102D00004EC2D4E60E94290B8D2F8C1B0E945307C4
:102D10008C2F0E94CA0AC301B201A70196010E942A
:102D2000901B49015A01EDE28E0E911CA11CB11CB1
:102D300065E0882D0E941A0762E0882D0E94A50791
:102D4000CE5FFEE64F0E511C611C711CCA31D1F6DC
:102D500071EA472E7AEF572E66246A94762CC9E1E1
:102D6000D4E60E94290B8D2F8C1B0E9453078C2FB9
:102D70000E94CA0AC301B201A70196010E94901BDA
:102D800049015A0184E6880E911CA11CB11C65E022
:102D9000882D0E941A0762E0882D0E94A507CE5F49
:102DA0009EE6491A510861087108C333D1F6CACEAC
:102DB0008091480290914902412C512C3201C0E08F
:102DC000069709F0CFC014E60E94290B8C2F0E94B1
:102DD0005307812F8C1B0E94CA0AC301B201A701AD
:102DE00096010E94901B49015A01EDE28E0E911C42
:102DF000A11CB11CD82DD23514F4882D01C082E558
:102E000065E00E941A07D23514F4882D01C082E5CE
:102E100062E00E94A507CE5FFEE64F0E511C611CCA
:102E2000711CC23389F6412C512C320114E60E94E8
:102E3000290B8C2F0E945307812F8C1B0E94CA0ADA
:102E4000C301B201A70196010E94901B49015A01DA
:102E500084E6880E911CA11CB11CD82DD23514F427
:102E6000882D01C082E565E00E941A07D23514F46E
:102E7000882D01C082E562E00E94A507CE5F9EE634
:102E8000491A510861087108C63689F6412C512C3F
:102E90003201C4E614E60E94290B8C2F0E945307CE
:102EA000812F8C1B0E94CA0AC301B2012EEC3FEF96
:102EB0004FEF5FEF0E94901B49015A01EDE28E0E29
:102EC000911CA11CB11CD82DD23514F4882D01C041
:102ED00082E562E00E941A07D23514F4882D01C001
:102EE00082E565E00E94A507C250FEE64F1A510830
:102EF00061087108C23379F6412C512C320114E675
:102F00000E94290B8C2F0E945307812F8C1B0E943B
:102F1000CA0AC301B2012EEC3FEF4FEF5FEF0E94F0
:102F2000901B49015A0184E6880E911CA11CB11C1A
:102F3000D82DD23514F4882D01C082E562E00E94BC
:102F40001A07D23514F4882D01C082E565E00E948D
:102F5000A507C2509EE6490E511C611C711CCE3F54
:102F600079F61DC1D4E60E94290B8C2F0E945307CD
:102F70008D2F8C1B0E94CA0AC301B201A7019601C2
:102F80000E94901B49015A01EDE28E0E911CA11C7A
:102F9000B11C65E0882D0E941A0762E0882D0E940E
:102FA000A507CE5FFEE64F0E511C611C711CCA3195
:102FB000D1F661EA462E6AEF562E66246A94762C84
:102FC000C9E1D4E60E94290B8C2F0E9453078D2F54
:102FD0008C1B0E94CA0AC301B201A70196010E947C
:102FE000901B49015A0184E6880E911CA11CB11C5A
:102FF00065E0882D0E941A0762E0882D0E94A507CF
:10300000CE5F9EE6491A510861087108C333D1F6B4
:1030100099CD86E094E00E943604109202018091DE
:10302000280490E09C01220F331F820F931FFC01A4
:10303000E552FC4F80818F7B80838091250490E056
:103040009C01220F331F820F931FFC01E552FC4F9E
:1030500080818F7B80838091BC008A7B8093BC00C1
:1030600060E082E10E947B0960E083E10E947B09CD
:10307000E0EAF0E08491ECEDF0E0C491E8ECF0E0FF
:10308000D491DD2309F48BC081110E945209ED2FE8
:10309000F0E0EE0FFF1FE855FF4FA591B4918C9122
:1030A000C82309F47CC0C6C0C0E00E94290B82E39B
:1030B0000E94530782E30E94CA0A84E60E94A00D80
:1030C0008C2F0E948A0D84E60E94740D8C2F0E9422
:1030D0005E0D84E60E94480D8C2F0E94320D84E61E
:1030E0000E941C0D8C2F0E94060D84E60E94F00C9D
:1030F0008C2F0E94DA0C84E60E94C40C8C2F0E9454
:10310000AE0CCF5FC33389F6C4E60E94290B82E37D
:103110000E94530782E30E94CA0A8C2F0E94A00DCE
:1031200082E30E948A0D8C2F0E94740D82E30E941C
:103130005E0D8C2F0E94480D82E30E94320D8C2F71
:103140000E941C0D82E30E94060D8C2F0E94F00C41
:1031500082E30E94DA0C8C2F0E94C40C82E30E944E
:10316000AE0CC150C13389F60E94290B82E30E9444
:10317000530782E30E94CA0A67E08C2F0E941A0755
:1031800067E08C2F0E94A507C150CC3269F71092DE
:1031900001011092000187E991E00E9405090E9457
:1031A000A1010C94C80F84E00C948A0F2DE630E046
:1031B0000C949B0F2BE630E00C949B0F2CE630E038
:1031C0000C949B0F292F30E09E3018F428503109C1
:1031D00002C02E50310981E001C0880F2A95EAF71C
:1031E0000C94A80F809142029091430224E0863013
:1031F000920711F40C94B80F009711F00E94360456
:10320000809124048E7F80932404109241021092B6
:10321000400286E094E09093430280934202E09162
:103220001904F0911A04908180911B04892B8083EA
:103230000C94B80F0E941C0BB2CF809100049091A7
:1032400001040E94711E81E391E090930704809332
:10325000060486E094E00C94360410924103109228
:10326000400388EE93E0A0E0B0E0809342039093A7
:103270004303A0934403B09345032DE031E0309322
:103280003F0320933E0325EC30E030934B03209323
:103290004A0324EC30E030934D0320934C0320ECA0
:1032A00030E030934F0320934E0321EC30E0309315
:1032B00051032093500322EC30E0309353032093CA
:1032C000520326EC30E030935503209354031092C0
:1032D0005703109258031092590310925A031092F8
:1032E0002E0410922D0480932F0490933004A09309
:1032F0003104B09332048FE191E090932C048093D9
:103300002B048BE294E0909339048093380480E49A
:10331000809337048091FF038C30A0F491E0980FE4
:103320009093FF038093280490E0FC01EE0FFF1FB1
:103330008E0F9F1FFC01E552FC4F88EB9BE09283B0
:10334000818303C08FEF809328048091FF038C302A
:10335000A0F491E0980F9093FF038093250490E0F0
:10336000FC01EE0FFF1F8E0F9F1FFC01E552FC4F6B
:1033700088EB9BE09283818303C08FEF80932504C9
:10338000109209041092080488EE93E0A0E0B0E0E7
:1033900080930A0490930B04A0930C04B0930D0443
:1033A00081E391E0909307048093060410921D043A
:1033B00010921C0410921F0410921E0410922104FB
:1033C000109220041092230410922204609124048D
:1033D0006E7F6D7F609324046695617081E068273D
:1033E00084E00E947B0961E084E00E94AA09E4ED88
:1033F000F0E0E491E0931604E0ECF0E0E491F0E01A
:10340000EE0FFF1FEE54FF4F859194919093180497
:103410008093170460E085E00E94AA09809124044B
:1034200081FD04C061E085E00E947B0985E0809316
:103430001204E5EDF0E0E491E0931304E1ECF0E038
:10344000E491F0E0EE0FFF1FE855FF4F8591949156
:10345000909315048093140480E094E00C94670822
:103460001F93FC0199278827BC01E8941191103221
:10347000E9F3193010F01E30C8F31B3251F01D3241
:1034800049F4689406C00E94571A610F711D811D8E
:10349000911D119110531A30B0F33EF49095809520
:1034A000709561957F4F8F4F9F4F1F910895592FB2
:1034B000482F372F262F660F771F881F991F660FFB
:1034C000771F881F991F620F731F841F951F660F38
:1034D000771F881F991F08950E94AE1A08F481E093
:1034E0000895E89409C097FB3EF4909580957095F7
:1034F00061957F4F8F4F9F4F9923A9F0F92F96E940
:10350000BB279395F695879577956795B795F111B4
:10351000F8CFFAF4BB0F11F460FF1BC06F5F7F4F51
:103520008F4F9F4F16C0882311F096E911C0772363
:1035300021F09EE8872F762F05C0662371F096E86C
:10354000862F70E060E02AF09A95660F771F881F3B
:10355000DAF7880F9695879597F90895990F0008DF
:10356000550FAA0BE0E8FEEF16161706E807F90755
:10357000C0F012161306E407F50798F0621B730BF0
:10358000840B950B39F40A2661F0232B242B252B71
:1035900021F408950A2609F4A140A6958FEF811D14
:1035A000811D08950E94E51A0C94561B0E94481B29
:1035B00038F00E944F1B20F0952311F00C943F1B14
:1035C0000C94451B11240C948A1B0E94671B70F3FA
:1035D000959FC1F3950F50E0551F629FF001729FB8
:1035E000BB27F00DB11D639FAA27F00DB11DAA1FC7
:1035F000649F6627B00DA11D661F829F2227B00D14
:10360000A11D621F739FB00DA11D621F839FA00D9E
:10361000611D221F749F3327A00D611D231F849FEE
:10362000600D211D822F762F6A2F11249F57504045
:103630009AF0F1F088234AF0EE0FFF1FBB1F661FC0
:10364000771F881F91505040A9F79E3F510580F089
:103650000C943F1B0C948A1B5F3FE4F3983ED4F319
:10366000869577956795B795F795E7959F5FC1F72D
:10367000FE2B880F911D9695879597F9089597F9D8
:103680009F6780E870E060E008959FEF80EC089508
:1036900000240A9416161706180609060895002431
:1036A0000A9412161306140605060895092E0394AB
:1036B000000C11F4882352F0BB0F40F4BF2B11F41F
:1036C00060FF04C06F5F7F4F8F4F9F4F089557FD7E
:1036D0009058440F551F59F05F3F71F04795880F80
:1036E00097FB991F61F09F3F79F087950895121617
:1036F00013061406551FF2CF4695F1DF08C01616C3
:1037000017061806991FF1CF869571056105089473
:103710000895E894BB2766277727CB0197F908958A
:10372000052E97FB1EF400940E94A71B57FD07D09F
:103730000E94F91B07FC03D04EF40C94A71B509574
:103740004095309521953F4F4F4F5F4F089590958D
:103750008095709561957F4F8F4F9F4F08950E9480
:103760001B1CA59F900DB49F900DA49F800D911DD3
:1037700011240895B7FF0C94AF1B0E94AF1B821B4E
:10378000930B08952F923F924F925F926F927F9288
:103790008F929F92AF92BF92CF92DF92EF92FF9261
:1037A0000F931F93CF93DF93CDB7DEB7CA1BDB0B0D
:1037B0000FB6F894DEBF0FBECDBF09942A883988B2
:1037C00048885F846E847D848C849B84AA84B984B9
:1037D000C884DF80EE80FD800C811B81AA81B981C5
:1037E000CE0FD11D0FB6F894DEBF0FBECDBFED01D9
:1037F0000895A1E21A2EAA1BBB1BFD010DC0AA1F32
:10380000BB1FEE1FFF1FA217B307E407F50720F049
:10381000A21BB30BE40BF50B661F771F881F991FC4
:103820001A9469F760957095809590959B01AC010D
:10383000BD01CF010895A29FB001B39FC001A39F16
:10384000700D811D1124911DB29F700D811D1124D9
:10385000911D08955058BB27AA270E94421C0C9422
:10386000561B0E94481B38F00E944F1B20F039F471
:103870009F3F19F426F40C94451B0EF4E095E7FBEA
:103880000C943F1BE92F0E94671B58F3BA1762077D
:1038900073078407950720F079F4A6F50C94891B2B
:1038A0000EF4E0950B2EBA2FA02D0B01B90190015B
:1038B0000C01CA01A0011124FF27591B99F0593F9F
:1038C00050F4503E68F11A16F040A22F232F342FE7
:1038D0004427585FF3CF469537952795A795F04035
:1038E0005395C9F77EF41F16BA0B620B730B840B4A
:1038F000BAF09150A1F0FF0FBB1F661F771F881F02
:10390000C2F70EC0BA0F621F731F841F48F4879559
:1039100077956795B795F7959E3F08F0B0CF93954B
:10392000880F08F09927EE0F9795879508950E94C4
:10393000AB1C0C94561B0E944F1B58F00E94481B56
:1039400040F029F45F3F29F00C943F1B51110C9477
:103950008A1B0C94451B0E94671B68F39923B1F3E3
:10396000552391F3951B550BBB27AA2762177307A5
:10397000840738F09F5F5F4F220F331F441FAA1F39
:10398000A9F335D00E2E3AF0E0E832D091505040F5
:10399000E695001CCAF72BD0FE2F29D0660F771FA3
:1039A000881FBB1F261737074807AB07B0E809F089
:1039B000BB0B802DBF01FF2793585F4F3AF09E3F0E
:1039C000510578F00C943F1B0C948A1B5F3FE4F385
:1039D000983ED4F3869577956795B795F7959F5F51
:1039E000C9F7880F911D9695879597F90895E1E09D
:1039F000660F771F881FBB1F621773078407BA07FC
:103A000020F0621B730B840BBA0BEE1F88F7E09556
:103A100008950E946F1B88F09F5798F0B92F99273F
:103A2000B751B0F0E1F0660F771F881F991F1AF0A9
:103A3000BA95C9F714C0B13091F00E94891BB1E06A
:103A400008950C94891B672F782F8827B85F39F069
:103A5000B93FCCF3869577956795B395D9F73EF442
:103A600090958095709561957F4F8F4F9F4F0895EA
:103A70000E94781D90F09F3748F4911116F00C9435
:103A80008A1B60E070E080E89FEB089526F41B1627
:103A9000611D711D811D0C944F1D0C946A1D88239E
:103AA00071F4772321F09850872B762F07C0662377
:103AB00011F499270DC09051862B70E060E02AF038
:103AC0009A95660F771F881FDAF7880F9695879566
:103AD00097F908959F3F31F0915020F4879577959D
:103AE0006795B795880F911D9695879597F90895D5
:103AF0000E946F1BA0F0BEE7B91788F4BB279F3860
:103B000060F41616B11D672F782F8827985FF7CFBE
:103B1000869577956795B11D93959639C8F3089565
:103B2000991B79E004C0991F961708F0961B881F0F
:103B30007A95C9F78095089597FB072E16F400949F
:103B400007D077FD09D00E94C51D07FC05D03EF4C3
:103B5000909581959F4F0895709561957F4F089539
:103B6000EE0FFF1F0590F491E02D09940E941B1C9D
:103B7000332312F48A1B9B0B0C94C01D0E941B1C48
:103B8000B7FF0895821B930B0895AA1BBB1B51E13D
:103B900007C0AA1FBB1FA617B70710F0A61BB70BBD
:103BA000881F991F5A95A9F780959095BC01CD0162
:103BB00008950F931F93CF93DF938230910510F4F4
:103BC00082E090E0E0914E04F0914F0420E030E07C
:103BD000A0E0B0E0309719F140815181028113815A
:103BE00048175907C8F08417950769F4109731F002
:103BF00012960C93129713961C9327C000934E04B1
:103C000010934F0422C02115310519F042175307B4
:103C100018F49A01BD01EF01DF01F801DBCF211596
:103C20003105F9F0281B390B2430310580F48A81E5
:103C30009B816115710521F0FB019383828304C090
:103C400090934F0480934E04FE01329644C0FE01CF
:103C5000E20FF31F81939193225031093983288316
:103C60003AC020914C0430914D04232B41F4209113
:103C700005013091060130934D0420934C042091AE
:103C80000301309104012115310541F42DB73EB7F0
:103C90004091070150910801241B350BE0914C0421
:103CA000F0914D04E217F307A0F42E1B3F0B2817E9
:103CB000390778F0AC014E5F5F4F2417350748F0A5
:103CC0004E0F5F1F50934D0440934C04819391938A
:103CD00002C0E0E0F0E0CF01DF91CF911F910F91A2
:103CE0000895CF93DF93009709F481C0FC013297C8
:103CF00013821282A0914E04B0914F04109781F468
:103D000020813181820F931F20914C0430914D040A
:103D10002817390751F5F0934D04E0934C0467C020
:103D2000ED0120E030E0CE17DF0740F44A815B81EF
:103D30009E0141155105F1F0EA01F5CFD383C2830D
:103D400040815181840F951FC817D90759F4888184
:103D50009981840F951F0296918380838A819B812C
:103D6000938382832115310529F4F0934F04E09366
:103D70004E043DC0E901FB83EA8349915991C40F88
:103D8000D51FEC17FD0761F480819181840F951F89
:103D90000296E90199838883828193819B838A8338
:103DA000E0E0F0E012968D919C911397009719F046
:103DB000FD01DC01F7CF8D919C9111979D012E5F44
:103DC0003F4F820F931F20914C0430914D042817D0
:103DD000390769F4309729F410924F0410924E0479
:103DE00002C013821282B0934D04A0934C04DF9161
:103DF000CF910895A0E0B0E0E0E0FFE10C94C61B95
:103E0000EC01009721F4CB010E94D91DB4C0FC0144
:103E1000E60FF71F9C0122503109E217F30708F45F
:103E2000A8C0D9010D911C91119706171707B0F082
:103E30000530110508F49BC0C80104978617970741
:103E400008F495C002501109061B170B019311933A
:103E50006D937C93CF010E94711E89C05B01A01AF3
:103E6000B10A4C01800E911EA0914E04B0914F04F6
:103E7000612C712CE12CF12C109709F446C08D9126
:103E80009C911197A815B905B1F56C0142E0C40EDB
:103E9000D11CCA14DB0478F14C018A189B08640118
:103EA00042E0C40ED11C1296BC9012971396AC91AE
:103EB000B5E0CB16D10440F0B282A3839182808218
:103EC000D9016D937C9309C00E5F1F4F800F911F26
:103ED000F90191838083EB2DFA2FE114F10431F085
:103EE000D7011396FC93EE93129741C0F0934F04C1
:103EF000E0934E043CC06816790608F43C017D014D
:103F000012960D90BC91A02DB7CF80914C0490914A
:103F10004D0488169906E1F466167706C8F4809178
:103F2000030190910401009741F48DB79EB7409131
:103F3000070150910801841B950BE817F907C8F495
:103F4000F0934D04E0934C04F901718360830FC03A
:103F5000CB010E94D91D7C01009759F0A801BE0138
:103F60000E94C51FCE010E94711EC70104C0CE0170
:103F700002C080E090E0CDB7DEB7EEE00C94E21B2B
:103F800081E090E0F8940C94D51FFB01DC0102C0A5
:103F900001900D9241505040D8F70895FB01DC018B
:103FA00001900D920020E1F7089510E0C3E7D0E002
:103FB00004C0FE010E94B01D2196C437D107C9F785
:043FC000F894FFCFA3
:103FC400FFFF010000500480000000000032019F48
:103FD40000C9007F01FA00D800EC0000000000D9FD
:103FE40002AC020803C301A4029002810200000093
:103FF40000C4019F000803C30114022C02AB014852
:10400400656C6C6F2C20526F626F537069646572BB
:104014002068657265212049276D20696E6974697D
:10402400616C6973696E67206E6F772E2E2E004562
:1040340072726F722E204261747465727920766F89
:104044006C74616765206C6576656C20746F6F2095
:104054006C6F772E2E2E00446F6E6521000D0A00C2
:104064004920676F7420736F6D65206461746120EB
:1040740066726F6D2073657269616C20706F727403
:1040840021005761726E696E672E204C6F77206233
:1040940061747465727920766F6C74616765206CE5
:1040A4006576656C2E004D656469756D206261747A
:1040B4007465727920766F6C74616765206C6576BF
:1040C400656C2E2049742069732061647669736578
:1040D4006420746F207475726E206F666620746835
:1040E4006520726F626F7420616E642073746172F4
:0E40F400742072656368617267696E672E00E2
:107800000C94343C0C94513C0C94513C0C94513CE1
:107810000C94513C0C94513C0C94513C0C94513CB4
:107820000C94513C0C94513C0C94513C0C94513CA4
:107830000C94513C0C94513C0C94513C0C94513C94
:107840000C94513C0C94513C0C94513C0C94513C84
:107850000C94513C0C94513C0C94513C0C94513C74
:107860000C94513C0C94513C11241FBECFEFD8E036
:10787000DEBFCDBF11E0A0E0B1E0ECE9FFE702C060
:1078800005900D92A230B107D9F712E0A2E0B1E065
:1078900001C01D92AD30B107E1F70E942D3D0C945F
:1078A000CC3F0C94003C982F959595959595959582
:1078B000905D8F708A307CF0282F295A8091C0000B
:1078C00085FFFCCF9093C6008091C00085FFFCCF60
:1078D0002093C6000895282F205DF0CF982F809127
:1078E000C00085FFFCCF9093C6000895EF92FF92F1
:1078F0000F931F93EE24FF2487018091C00087FD22
:1079000017C00894E11CF11C011D111D81E4E8164B
:1079100082E4F8068FE0080780E0180770F3E09132
:107920000401F091050109958091C00087FFE9CF1E
:107930008091C6001F910F91FF90EF9008950E94D3
:10794000763C982F8091C00085FFFCCF9093C600B5
:1079500091362CF490330CF09053892F089597555D
:10796000892F08951F930E949F3C182F0E949F3CCF
:107970001295107F810F1F9108951F93182F882350
:1079800021F00E94763C1150E1F71F9108951F935A
:10799000182F0E94763C803249F0809103018F5F5E
:1079A000809303018530C1F01F9108958091C0003C
:1079B00085FFFCCF84E18093C6008091C00085FFE5
:1079C000FCCF1093C6008091C00085FFFCCF80E102
:1079D0008093C6001F910895E0910401F091050184
:1079E00009951F9108950E94763C803241F0809164
:1079F00003018F5F80930301853081F008958091AA
:107A0000C00085FFFCCF84E18093C6008091C00058
:107A100085FFFCCF80E18093C6000895E0910401CA
:107A2000F09105010995089540E951E08823A1F0FE
:107A30002D9A28EE33E0FA013197F1F721503040CA
:107A4000D1F72D9828EE33E0FA013197F1F7215064
:107A50003040D1F7815061F708953F924F925F9285
:107A60006F927F928F929F92AF92BF92CF92DF924E
:107A7000EF92FF920F931F93CF93DF93000080E16B
:107A80008093C4001092C50088E18093C10086E015
:107A90008093C2005098589A259A81E00E94143D24
:107AA00024E1F22E9EE1E92E85E9D82E0FE0C02ECA
:107AB00010E1B12EAA24A394B1E49B2EA6E58A2E50
:107AC000F2E57F2EE0E26E2E79E4572E63E5462E36
:107AD00050E5352E0E94763C8033B1F18133B9F107
:107AE000803409F46FC0813409F476C0823409F41B
:107AF00085C0853409F488C0803531F1823521F1A3
:107B0000813511F1853509F485C0863509F48DC0BC
:107B1000843609F496C0843709F403C1853709F423
:107B200072C1863709F466C0809103018F5F80932C
:107B30000301853079F6E0910401F0910501099582
:107B40000E94763C803351F60E94F33CC3CF0E94E2
:107B5000763C803249F78091C00085FFFCCFF092DF
:107B6000C6008091C00085FFFCCF9092C600809136
:107B7000C00085FFFCCF8092C6008091C00085FFC9
:107B8000FCCF7092C6008091C00085FFFCCF609250
:107B9000C6008091C00085FFFCCF5092C600809146
:107BA000C00085FFFCCF4092C6008091C00085FFD9
:107BB000FCCF3092C6008091C00085FFFCCFB09210
:107BC000C60088CF0E94763C863808F4BDCF0E945C
:107BD000763C0E94F33C7ECF0E94763C803809F4CC
:107BE0009CC0813809F40BC1823809F43CC1883942
:107BF00009F48FC080E00E94C73C6CCF84E10E94F2
:107C0000BD3C0E94F33C66CF85E00E94BD3C0E94D3
:107C1000F33C60CF0E94763C809306010E94763C44
:107C2000809307010E94F33C55CF0E94763C80333D
:107C300009F41DC183E00E94BD3C80E00E94C73C66
:107C400049CF0E94763C809309020E94763C809343
:107C5000080280910C028E7F80930C020E94763C79
:107C6000853409F415C18091080290910902892B8D
:107C700089F000E010E00E94763CF801E85FFE4FDA
:107C800080830F5F1F4F80910802909109020817AF
:107C9000190788F30E94763C803209F045CF809125
:107CA0000C0280FF01C16091060170910701660F0F
:107CB000771F7093070160930601A0910802B091AD
:107CC00009021097C9F0E8E0F1E09B01AD014E0F09
:107CD0005F1FF999FECF32BD21BD819180BDFA9A17
:107CE000F99A2F5F3F4FE417F50799F76A0F7B1F4B
:107CF00070930701609306018091C00085FFFCCF5F
:107D0000F092C6008091C00085FFFCCFB092C60003
:107D1000E1CE83E00E94C73CDDCE82E00E94C73CFA
:107D2000D9CE0E94763C809309020E94763C8093D3
:107D300008028091060190910701880F991F909386
:107D40000701809306010E94763C853409F4A6C0A1
:107D500080910C028E7F80930C020E94763C8032D0
:107D600009F0B8CE8091C00085FFFCCFF092C6002C
:107D7000609108027091090261157105B9F140E046
:107D800050E080910C02A82FA170B82FB27011C0E2
:107D9000BB2309F45CC0E0910601F0910701319624
:107DA000F0930701E09306014F5F5F4F46175707B7
:107DB000E8F4AA2369F3F999FECF209106013091E6
:107DC000070132BD21BDF89A90B58091C00085FFB2
:107DD000FCCF9093C6002F5F3F4F30930701209355
:107DE00006014F5F5F4F4617570718F38091C00099
:107DF00085FDE5CE8091C00085FFF8CFE0CE81E023
:107E00000E94C73C67CE0E94763C803209F08CCE3F
:107E10008091C00085FFFCCFF092C6008091C00029
:107E200085FFFCCFE092C6008091C00085FFFCCFAB
:107E3000D092C6008091C00085FFFCCFC092C600E2
:107E40008091C00085FFFCCFB092C60043CEE09188
:107E50000601F091070194918091C00085FFFCCF4D
:107E60009093C6009CCF80E10E94C73C33CE0E9415
:107E7000763C0E94763C182F0E94763C112309F430
:107E800083C0113009F484C08FE00E94C73C22CE29
:107E900080910C02816080930C02E5CE80910C02EF
:107EA000816080930C0259CF809107018823880F4D
:107EB000880B8A2180930B02809106019091070123
:107EC000880F991F90930701809306018091080203
:107ED00080FF09C080910802909109020196909359
:107EE000090280930802F894F999FECF1127E091D6
:107EF0000601F0910701C8E0D1E08091080290915D
:107F00000902103091F40091570001700130D9F34B
:107F100003E000935700E89500915700017001308D
:107F2000D9F301E100935700E89509901990009169
:107F3000570001700130D9F301E000935700E89534
:107F40001395103498F011270091570001700130FB
:107F5000D9F305E000935700E895009157000170B0
:107F60000130D9F301E100935700E895329602976A
:107F700009F0C7CF103011F00296E5CF112480919F
:107F8000C00085FFB9CEBCCE8EE10E94C73CA2CD19
:0C7F900085E90E94C73C9ECDF894FFCF0D
:027F9C00800063
:040000030000780081
:00000001FF
