:100000000C947F000C94A7000C94A7000C94660439
:100010000C9466040C9466040C94A7000C94A7003E
:100020000C94A7000C94A7000C94A7000C94520504
:100030000C94A7000C94A7000C94A7000C94A700A4
:100040000C942A090C94A7000C9434040C940E040C
:100050000C94A7000C94A7000C94A7000C94A70084
:100060000C9413060C94A700F70F490FBE0FC60F90
:10007000CD0FD40FDB0FE20FE90F570F8E0F930F49
:10008000960F9B0FA00FA70FAF0FB90FF70FB90F68
:10009000F20FC60FCD0FD40FDB0FE20FE90F0911DE
:1000A00000000000240027002A00000000080002D1
:1000B0000100000304070000000000000000000031
:1000C0000000230026002900000000002500280071
:1000D0002B000404040404040404020202020202C9
:1000E00003030303030301020408102040800102FC
:1000F0000408102001020408102032116F0C112492
:100100001FBECFEFD8E0DEBFCDBF12E0A0E0B1E070
:10011000E0E5F0E302C005900D92A433B107D9F7F2
:1001200024E0A4E3B2E001C01D92AE33B207E1F7D0
:1001300010E0CEE7D0E004C02197FE010E94F61542
:10014000CD37D107C9F70E947F0C0C941B180C9473
:1001500000000895CF92DF92EF92FF920F931F93CA
:10016000CF93DF936C017A018B01C0E0D0E0CE1514
:10017000DF0581F0D8016D918D01D601ED91FC91E3
:100180000190F081E02DC6010995892B11F021968F
:10019000EECF7E01C701DF91CF911F910F91FF90AC
:1001A000EF90DF90CF900895FC01538D448D252F63
:1001B00030E0842F90E0821B930B541710F0CF9601
:1001C000089501970895FC01918D828D981761F033
:1001D000828DDF01A80FB11D5D968C91928D9F5F7E
:1001E0009F73928F90E008958FEF9FEF0895FC0129
:1001F000918D828D981731F0828DE80FF11D858DDC
:1002000090E008958FEF9FEF0895FC01918D228D6E
:10021000892F90E0805C9F4F821B91098F739927F3
:1002200008958DE393E00E94050121E0892B09F4F4
:1002300020E0822F0895FC01848DDF01A80FB11DFD
:10024000A35ABF4F2C91848D90E001968F7399270C
:10025000848FA689B7892C93A089B1898C918370EA
:1002600080648C93938D848D981306C00288F389E3
:10027000E02D80818F7D80830895EF92FF920F9310
:100280001F93CF93DF93EC0181E0888F9B8D8C8D42
:10029000981305C0E889F989808185FD26C0F62E6E
:1002A0000B8D10E00F5F1F4F0F731127E02E8C8D09
:1002B000E8120CC00FB607FCFACFE889F9898081F3
:1002C00085FFF5CFCE010E941B01F1CF8B8DFE0182
:1002D000E80FF11DE35AFF4FF0829FB7F8940B8FA0
:1002E000EA89FB89808180620AC09FB7F894EE8911
:1002F000FF896083E889F9898081837080648083C5
:100300009FBF81E090E0DF91CF911F910F91FF900F
:10031000EF900895CF93DF93EC01888D8823C9F087
:10032000EA89FB89808185FD05C0A889B9898C91FE
:1003300086FD0FC00FB607FCF5CF808185FFF2CF99
:10034000A889B9898C9185FFEDCFCE010E941B0150
:10035000E7CFDF91CF91089580E090E0892B29F0DD
:100360000E94110181110C94000008952091BA029D
:100370003091BB022817390771F49091B80280912F
:10038000B902981741F0E091B802F0E0E858FD4F4B
:10039000808190E008958FEF9FEF089508951F9357
:1003A000CF93DF93DC015C968D919C915D970097D4
:1003B00039F421E030E013963C932E9312973BC022
:1003C0005196ED91FC91529750962C915097322F67
:1003D00030951FB75E964C915E97742F727041FDF9
:1003E0006095F8944081772311F0422B01C043239C
:1003F0004083EC012197F1F748E0508160FF02C093
:10040000522B01C053235083EC012197F1F76695DD
:10041000415099F78081772319F08323808302C0AC
:10042000282B20831FBF5C968D919C915D9701972F
:10043000F1F781E090E0DF91CF911F910895209135
:10044000BA023091BB022817390771F48091B902C2
:100450002091B80290E0805C9F4F821B910960E47C
:1004600070E00E94E215089580E090E008952091E8
:10047000BA023091BB0228173907B9F49091B8023B
:100480008091B902981789F0E091B802F0E0E8583D
:10049000FD4F80812091B80230E02F5F3F4F2F73D6
:1004A00033272093B80290E008958FEF9FEF0895CF
:1004B000CF92DF92EF92FF92CF93DF93EC01603205
:1004C00082E078070CF03DC077FD06C0653B710502
:1004D0002CF064EB70E002C060E070E0898128E8F5
:1004E00030E06901C81AD10887FDD394CC0CDD1C1B
:1004F000CC0CDD1C0D2C000CEE08FF088A8128E5D1
:1005000032E0281B310987FD3395220F331F220F5C
:10051000331FC901330FAA0BBB0B9C01AD012C1972
:100520003D094E095F09DB010E94001424EB30E015
:1005300040E050E00E94D613C20ED31EE41EF51E0A
:10054000B60138813C3080F5298188E890E0821B33
:10055000910927FD9395880F991F880F991F681798
:10056000790784F08A8148E552E0481B510987FDEC
:100570005395440F551F440F551FCB01461757077E
:100580000CF4CA010297880F991F4FB7F894232FD4
:1005900030E0F901EE0FFF1F2E0F3F1FF901E65269
:1005A000FC4F928381834FBFDF91CF91FF90EF90FB
:1005B000DF90CF90089585ED8093BC008091BC00C2
:1005C00084FDFCCF10921903089540915402262F08
:1005D00030E0240F311D21323105DCF42091190364
:1005E0002430C9F4FC0180E090E0861758F4309183
:1005F00054022191DC01AC5CBD4FA30FB11D2C93C3
:100600000196F3CF80915402680F6093540280E00A
:10061000089581E0089582E0089508950895E09195
:10062000D2028091D102E81730F4F0E0ED52FD4F94
:10063000808190E008958FEF9FEF08959091D2020E
:100640008091D102981750F4E92FF0E0ED52FD4F60
:10065000208130E09F5F9093D20202C02FEF3FEFE6
:10066000C90108958091D10290E02091D202821BAD
:1006700091090895CF92DF92EF92FF920F931F930B
:10068000CF93DF937C01CB018A0120911A032223AF
:1006900089F0EB016B01C40ED51ECC15DD0569F0A8
:1006A0006991D701ED91FC910190F081E02DC70196
:1006B0000995F3CF642F0E94E502C801DF91CF9125
:1006C0001F910F91FF90EF90DF90CF900895CF93FF
:1006D000DF931F92CDB7DEB7698320911A032223DF
:1006E000D1F020913C03203240F021E030E0FC01C9
:1006F0003383228380E090E015C080911B03E82FB4
:10070000F0E0E45EFC4F998190838F5F80931B0340
:1007100080933C0305C061E0CE0101960E94E50292
:1007200081E090E00F90DF91CF91089580E090E01C
:1007300008950F931F93CF93DF93EC0188819981E4
:10074000009729F02A813B812617370788F48B010F
:100750006F5F7F4F0E944017009761F099838883F5
:100760001B830A832C813D81232B11F4FC01108211
:1007700081E001C080E0DF91CF911F910F9108953A
:10078000CF93DF93EC0188819981009711F00E944B
:10079000B716198218821D821C821B821A82DF9171
:1007A000CF910895CF93DF93EC012FB7F894809108
:1007B000C0029091C102A091C202B091C3022FBFAA
:1007C00088879987AA87BB87E881F9810284F385A6
:1007D000E02DCE01099597FF1EC02FB7F8948091A8
:1007E000C0029091C102A091C202B091C3022FBF7A
:1007F000488559856A857B85841B950BA60BB70BAD
:100800004C815D816E817F8184179507A607B707AC
:10081000D8F28FEF9FEFDF91CF9108951F920F9243
:100820000FB60F9211242F933F934F935F936F93C3
:100830007F938F939F93AF93BF93EF93FF938DE33A
:1008400093E00E941B01FF91EF91BF91AF919F91A7
:100850008F917F916F915F914F913F912F910F9069
:100860000FBE0F901F9018951F920F920FB60F9208
:1008700011242F938F939F93EF93FF93E0914D0358
:10088000F0914E038081E0915303F091540382FD77
:1008900012C09081809156038F5F8F732091570310
:1008A000821751F0E0915603F0E0E35CFC4F958F26
:1008B0008093560301C08081FF91EF919F918F91AA
:1008C0002F910F900FBE0F901F9018951F920F92AF
:1008D0000FB60F9211242F933F934F935F936F9313
:1008E0007F938F939F93AF93BF93EF93FF93E09189
:1008F000BA02F091BB02309709F451C0968DA685DB
:10090000B785858591FF04C09C91892329F447C050
:100910009C91892309F043C0A389B4899C9185895E
:10092000809589238C93868997890197F1F7608D4B
:10093000718DA685B785558538E020E0CB010197FC
:10094000F1F7822F90E095958795282F4C914523BC
:1009500009F02068315091F7868D81FD20958091B6
:10096000B90290E001968F7399273091B802381739
:1009700049F0A091B902B0E0A858BD4F2C938093E4
:10098000B90203C0868D8160868F828D938D019719
:10099000F1F7A389B4899C918589892B8C93FF9168
:1009A000EF91BF91AF919F918F917F916F915F91E7
:1009B0004F913F912F910F900FBE0F901F90189560
:1009C000E091BA02F091BB02E817F90769F4A38934
:1009D000B4899C918589809589238C931092BB0260
:1009E0001092BA0281E0089580E008951F93CF939A
:1009F000DF93EC01162F88818C3008F04EC061E047
:100A0000812F0E944F0B8881E82FF0E09F01220F79
:100A1000331FE20FF31FE652FC4F1F739081907C4F
:100A2000192B108319821A826CE00E94D6159CE063
:100A3000899FB001112440E050E09B01240F351F35
:100A4000F901EE0FFF1F2E0F3F1FF901E652FC4F79
:100A5000908196FD16C04F5F5F4F4C30510569F78E
:100A600081110FC01092800082E08093810010926B
:100A7000850010928400B19A80916F00826080930B
:100A80006F00E881F0E0CF01880F991FE80FF91F90
:100A9000E652FC4F8081806480838881DF91CF9112
:100AA0001F9108951F920F920FB60F9211242F934A
:100AB0003F934F935F936F937F938F939F93AF93E6
:100AC000BF93EF93FF938091770287FF05C0109249
:100AD0008500109284001BC020917702022E000C2A
:100AE000330B8091FE0390E02817390784F480913E
:100AF0007702082E000C990BFC01EE0FFF1F8E0FE2
:100B00009F1FFC01E652FC4F808186FD15C080913D
:100B100077028F5F8093770220917702022E000C7C
:100B2000330B8091FE0390E028173907C4F48091BD
:100B300077028C3064F113C080917702082E000C8C
:100B4000990BFC01EE0FFF1F8E0F9F1FFC01E65259
:100B5000FC4F808160E08F730E94020BD8CF8091A0
:100B6000840090918500049680349C4918F480E4B8
:100B70009CE905C080918400909185000496909333
:100B80008900809388008FEF809377023BC020918B
:100B900084003091850080917702082E000C990B1B
:100BA000FC01EE0FFF1F8E0F9F1FFC01E652FC4F52
:100BB00081819281820F931F909389008093880096
:100BC00080917702082E000C990BFC01EE0FFF1F9D
:100BD0008E0F9F1FFC01E652FC4F808186FF12C0E2
:100BE00080917702082E000C990BFC01EE0FFF1F7D
:100BF0008E0F9F1FFC01E652FC4F808161E08F73D6
:100C00000E94020BFF91EF91BF91AF919F918F9145
:100C10007F916F915F914F913F912F910F900FBEF8
:100C20000F901F9018951F920F920FB60F921124DC
:100C30002F933F934F935F936F937F938F939F93E4
:100C4000AF93BF93EF93FF938091B900887F803675
:100C500009F49CC068F5883209F45BC090F48031D7
:100C600009F454C038F4882309F4F6C0883009F434
:100C70004DC0F6C0883109F44CC0803209F45DC023
:100C8000EFC0803409F468C048F4803309F455C0DB
:100C9000883309F0E5C080931703D8C0803509F484
:100CA0004FC0883509F45DC0883409F0D9C0D6C07A
:100CB000883909F4C7C0A8F4883709F467C038F444
:100CC000883609F463C0803709F460C0C9C0883829
:100CD00009F4B8C0803909F45FC0803809F0C0C099
:100CE0005BC0803B09F486C038F4803A09F466C0E2
:100CF000883A09F47FC0B4C0803C09F4A7C0883C9E
:100D000009F4A4C0883B09F48AC0AAC08091F40207
:100D100010C09091160380911503981770F5E0911B
:100D2000160381E08E0F80931603F0E0EB50FD4F29
:100D300080818093BB0085EC86C0809317038EC0B2
:100D4000E091160381E08E0F809316038091BB0023
:100D5000F0E0EB50FD4F80839091160380911503D6
:100D60006EC0E091160381E08E0F80931603809190
:100D7000BB00F0E0EB50FD4F8083809118038111A0
:100D80006DC081E08093F30284EA61C083E08093C8
:100D9000190310927602CFCF80917602803208F04C
:100DA00051C0E091760281E08E0F809376028091AF
:100DB000BB00F0E0EA5AFD4F8083BDCF85EC809305
:100DC000BC001092190380917602803230F4E091D9
:100DD0007602F0E0EA5AFD4F10826091760270E0F0
:100DE000E091BC02F091BD0286E592E00995109277
:100DF000760236C084E08093190310925502109257
:100E00005402E091BE02F091BF0209958091540214
:100E1000811105C081E08093540210923402E09168
:100E2000550281E08E0F80935502F0E0EC5CFD4F9F
:100E300080818093BB009091550280915402981755
:100E400008F479CF85E88093BC000AC085EC8093D4
:100E5000BC001092190304C0109217030E94DB0219
:100E6000FF91EF91BF91AF919F918F917F916F9182
:100E70005F914F913F912F910F900FBE0F901F9058
:100E80001895CF936AE570E084E294E00E945802DE
:100E90006AE570E087E294E00E945802C0E067E7EC
:100EA00071E08C2F0E94840ACF5FC031C1F7CF91CF
:100EB0000895282F880F330BA8E3BFEF0E94FC157D
:100EC00024E630E040E050E00E94D613CA01B901A8
:100ED00065527E4F8F4F9F4F8FE00C94840AA82F4E
:100EE000880FBB0B22E231E00E94041624E630E0BA
:100EF00040E050E00E94D613CA01B9016A517F4F09
:100F00008F4F9F4F8EE00C94840AA82F880FBB0B45
:100F100026E430E00E94041624E630E040E050E091
:100F20000E94D613CA01B9016C5A7E4F8F4F9F4F52
:100F30008DE00C94840A282F880F330BA8E3BFEFB1
:100F40000E94FC1524E630E040E050E00E94D613F9
:100F5000CA01B90165527E4F8F4F9F4F8CE00C94B0
:100F6000840AA82F880FBB0B22E231E00E940416EE
:100F700024E630E040E050E00E94D613CA01B901F7
:100F80006A517F4F8F4F9F4F8BE00C94840AA82F9C
:100F9000880FBB0B26E430E00E94041624E630E004
:100FA00040E050E00E94D613CA01B9016C5A7E4F4E
:100FB0008F4F9F4F8AE00C94840AA82F880FBB0B99
:100FC00028EC30E00E94041624E630E040E050E0D7
:100FD0000E94D613CA01B9016D5E7E4F8F4F9F4F9D
:100FE00088E00C94840A282F880F330BAEEDBEEFF7
:100FF0000E94FC1524E630E040E050E00E94D61349
:10100000CA01B901685F7D4F8F4F9F4F89E00C94F3
:10101000840AA82F880FBB0B2CE130E00E94041635
:1010200024E630E040E050E00E94D613CA01B90146
:10103000645B7F4F8F4F9F4F87E294E00C94580280
:10104000CF93C82F0E94090884E68C1B0E94C70713
:101050008C2FCF910C948507A82F880FBB0B28EC01
:1010600030E00E94041624E630E040E050E00E94A8
:10107000D613CA01B9016D5E7E4F8F4F9F4F80E03E
:101080000C94840A282F880F330BAEEDBEEF0E941C
:10109000FC1524E630E040E050E00E94D613CA017F
:1010A000B901685F7D4F8F4F9F4F81E00C94840A98
:1010B000282F880F330BAAEBBFEF0E94FC1524E604
:1010C00030E040E050E00E94D613CA01B9016656F4
:1010D0007E4F8F4F9F4F82E00C94840AA82F880F79
:1010E000BB0B28EC30E00E94041624E630E040E020
:1010F00050E00E94D613CA01B9016D5E7E4F8F4F3A
:101100009F4F83E00C94840A282F880F330BAEED99
:10111000BEEF0E94FC1524E630E040E050E00E9463
:10112000D613CA01B901685F7D4F8F4F9F4F84E08E
:101130000C94840A282F880F330BAAEBBFEF0E9470
:10114000FC1524E630E040E050E00E94D613CA01CE
:10115000B90166567E4F8F4F9F4F85E00C94840AED
:10116000282F880F330BA8E3BFEF0E94FC1524E65D
:1011700030E040E050E00E94D613CA01B901655248
:101180007E4F8F4F9F4F87E00C94840AA82F880FC3
:10119000BB0B22E231E00E94041624E630E040E07E
:1011A00050E00E94D613CA01B9016A517F4F8F4F98
:1011B0009F4F86E00C94840A282F880F330BA4EEEF
:1011C000BFEF0E94FC1524E630E040E050E00E94B2
:1011D000D613CA01B90168597F4F8F4F9F4F84E2E0
:1011E00094E00C945802CF93DF93D82FC4E6C81B29
:1011F0008C2F0E94DC088D2F0E949A088C2FDF9183
:10120000CF910C9458080E9406183FB7F89480912B
:10121000CD029091CE02A091CF02B091D00226B51E
:10122000A89B05C02F3F19F00196A11DB11D3FBF1E
:10123000BA2FA92F982F8827820F911DA11DB11DAC
:10124000BC01CD0142E0660F771F881F991F4A95A8
:10125000D1F708951F920F920FB60F9211242F937A
:101260003F938F939F93AF93BF938091C0029091D0
:10127000C102A091C202B091C3023091CC0223E01E
:10128000230F2D3720F40196A11DB11D05C026E8BE
:10129000230F0296A11DB11D2093CC028093C002A2
:1012A0009093C102A093C202B093C3028091CD0279
:1012B0009091CE02A091CF02B091D0020196A11DD3
:1012C000B11D8093CD029093CE02A093CF02B09334
:1012D000D002BF91AF919F918F913F912F910F902D
:1012E0000FBE0F901F901895282F30913C0331327C
:1012F00008F04AC0809119038111FCCF90912D0410
:1013000042E040931903209318032FEF2093170313
:101310001092160330931503ECE1F3E0A5EFB2E071
:1013200020E0321721F041914D932F5FFACF1092B8
:10133000F4022091F402990F922B9093F402909171
:10134000F302913061F41092F3029091F4029093C1
:10135000BB009091BC0093FDF8CF95EC01C095EED9
:101360009093BC00909119039230E1F39091170390
:101370009F3F79F080911703803241F080911703ED
:10138000803331F084E005C081E003C082E001C019
:1013900083E010921B0310923C0310921A030895ED
:1013A000DC01ED91FC910190F081E02D0994CF9347
:1013B000DF93EC01198218821B821A821D821C8223
:1013C00060E070E00E949903811105C0CE01DF91B9
:1013D000CF910C94C0031D821C8263E372E088816C
:1013E0009981DF91CF910C941418CF93DF930097DC
:1013F00079F0FC0101900020E9F73197AF01481B1B
:10140000590BBC018DE393E00E94AA00EC0102C0DD
:10141000C0E0D0E042E050E061E372E08DE393E0B1
:101420000E94AA008C0F9D1FDF91CF910895EF922B
:10143000FF920F931F93CF93DF9300D0CDB7DEB70A
:101440008C0169831A82FC01E480F580FFEFEF1ABA
:10145000FF0AB7010E949903882381F0F8012081D7
:10146000318184819581BE016F5F7F4F820F931F11
:101470000E941418F801F582E48281E00F900F9029
:10148000DF91CF911F910F91FF90EF900895CF932F
:10149000DF93EC018091FF03909100040097C9F065
:1014A000688179816115710591F040910104509135
:1014B00002042C813D814217530748F00E94141802
:1014C0008C819D81909304048093030418C00E9432
:1014D000B71688819981909300048093FF038A81D5
:1014E0009B8190930204809301048C819D81909351
:1014F000040480930304198218821B821A821D82BD
:101500001C82DF91CF9108950F931F93CF93DF93A8
:101510008B01CAE2D4E0988121E020931A039093D2
:101520002D0410921B0310923C03A981BA8124E080
:10153000829FC0011124BC016A5F7F4FED91FC9135
:1015400011970190F081E02DCD01099560E070E0E8
:1015500089819A810E94D00960E070E089819A8136
:101560000E94D009B80189819A810E94D009612F17
:1015700070E089819A810E94D00981E0DF91CF914A
:101580001F910F910C94740986E480937C008091E4
:101590007A00806480937A0080917A0086FDFCCF87
:1015A000809178002091790090E0922B08951F930C
:1015B000CF93DF93162FCAE2D4E0988121E02093E5
:1015C0001A0390932D0410921B0310923C03A981DF
:1015D000BA81ED91FC9111970190F081E02D682F77
:1015E000CD01099589819A81DC01ED91FC910190F1
:1015F000F081E02D612F099581E0DF91CF911F915E
:101600000C94740990E0FC01E655FF4F2491FC0115
:10161000EA51FF4F3491FC01EE52FF4FE491EE236B
:1016200009F43CC0222339F1233091F038F4213001
:10163000A9F0223001F584B58F7D12C0273091F0DA
:101640002830A1F02430B9F4809180008F7D03C050
:10165000809180008F77809380000DC084B58F7754
:1016600084BD09C08091B0008F7703C08091B00025
:101670008F7D8093B000F0E0EE0FFF1FE853FF4F27
:10168000A591B4919FB7F894611104C08C913095E5
:10169000382302C0EC913E2B3C939FBF0895CF931B
:1016A000DF9390E0FC01EA51FF4F2491FC01EE52E0
:1016B000FF4F8491882361F190E0880F991FFC010E
:1016C000E056FF4FC591D491FC01E853FF4FA5911F
:1016D000B491611109C09FB7F89488812095822345
:1016E0008883EC912E230BC0623061F49FB7F8948D
:1016F0008881322F309583238883EC912E2B2C9375
:101700009FBF06C08FB7F894E8812E2B28838FBF28
:10171000DF91CF9108958F929F92AF92BF92CF9217
:10172000DF92EF92FF926B017C010E9405094B0151
:101730005C01C114D104E104F104F1F00E94050937
:10174000DC01CB0188199909AA09BB09883E93409D
:10175000A105B10570F321E0C21AD108E108F10832
:1017600088EE880E83E0981EA11CB11CC114D10420
:10177000E104F10419F7DDCFFF90EF90DF90CF90F7
:10178000BF90AF909F908F900895CF93DF9326E600
:1017900036E646E65FE30E9418139B01AC0160E267
:1017A0007CEB8EEB95E40E94DD1420E030E040E815
:1017B0005FE30E94701420E030E040E05FE30E94AD
:1017C00071140E947E150E944F15D62F80912A0415
:1017D00091E090931A0380932D0410921B031092B2
:1017E0003C0380912B0490912C04DC01ED91FC9141
:1017F0000190F081E02D60E0099581E00E9474097C
:1018000080912A04909119039111FCCF91E090935B
:101810001903909318032FEF2093170310921603C8
:10182000109215039093F4029091F402880F892B83
:101830008093F4028091F302813061F41092F302FC
:101840008091F4028093BB008091BC0083FDF8CFAF
:1018500085EC01C085EE8093BC0080911903813036
:10186000E1F380911603811103C09091160301C02A
:1018700091E0A5EFB2E0E3EDF2E080E0891721F01E
:101880002D9121938F5FFACF1092D2028093D102D3
:1018900080912B0490912C04DC01ED91FC91028449
:1018A000F385E02D0995C82F682F6F76606180E081
:1018B0000E94D70A6D2F8EEF0E94D70A6C2F80E00E
:1018C0000E94D70A65E070E080E090E00E948B0BF8
:1018D0006C2F606A80E0DF91CF910C94D70A8091E1
:1018E000FF03909100040E94B71680E391E090936B
:1018F00006048093050485E094E00C94E004CF9303
:10190000DF93CDB7DEB7AE970FB6F894DEBF0FBE4C
:10191000CDBF789484B5826084BD84B5816084BD78
:1019200085B5826085BD85B5816085BD80916E007D
:10193000816080936E0010928100809181008260AE
:1019400080938100809181008160809381008091EB
:1019500080008160809380008091B10084608093DA
:10196000B1008091B00081608093B00080917A00D6
:10197000846080937A0080917A00826080937A00FC
:1019800080917A00816080937A0080917A008068EB
:1019900080937A001092C100E0914D03F0914E03C4
:1019A00082E08083E0914903F0914A031082E09144
:1019B0004B03F0914C038FEC808310925503E09120
:1019C0005103F091520386E08083E0914F03F09140
:1019D0005003808180618083E0914F03F091500338
:1019E000808188608083E0914F03F0915003808173
:1019F00080688083E0914F03F091500380818F7D58
:101A000080838EE391E00E94F5090E94C40ABC0124
:101A1000990F880B990B0E94B91226E636E646E02C
:101A200051E40E94181320E030E040E85AE30E949D
:101A300018132FE832EC45ED50E40E94B21287FFF4
:101A400011C08EE691E00E94F50981E090E090934C
:101A5000C9028093C80288E090E0909301018093CE
:101A60000001F2C01092D2021092D10210921B0318
:101A700010923C031092190381E080931803109296
:101A8000F30261E082E10E94020B61E083E10E94C7
:101A9000020B8091B9008E7F8093B9008091B900CC
:101AA0008D7F8093B90088E48093B80085E48093AB
:101AB000BC008DE093E09093BF028093BE028EE065
:101AC00093E09093BD028093BC0260E880E00E94A6
:101AD000D70A6AE070E080E090E00E948B0B60E043
:101AE00070E08AE794E40E94C50B60E070E080E754
:101AF00092E40E94C50B63E070E087E294E00E94EC
:101B0000F6046BE070E084E294E00E94F60482E365
:101B10000E94DC0884E60E94C60880E00E94B008AB
:101B200082E30E949A0884E60E94840880E00E9472
:101B30006E0882E30E94580884E60E94420880E012
:101B40000E942C0882E30E94090884E60E94F307A1
:101B500080E00E94DD0782E30E94C70784E60E94BE
:101B6000B10780E00E949B0782E30E94850784E61C
:101B70000E946F0780E00E94590710922004109283
:101B80001F0410921E0410921D0410921C04109247
:101B90001B048DE991E0909322048093210490919D
:101BA0001104963108F043C02DEB30E030931C0453
:101BB00020931B042BE931E030931E0420931D0475
:101BC0002CE231E03093200420931F044091680000
:101BD000983008F4D6C231E09E3008F430E021E0BD
:101BE000822F01C0880F3A95EAF7842B8093680012
:101BF000983008F4C8C29E3008F4C8C2963108F084
:101C0000C8C22CE630E030931904209318049830B1
:101C100008F0C2C281E001C0880F9A95EAF780936C
:101C20001A0480912104909122040197F1F7809188
:101C30001F0490912004892B09F0BDC264EF71E06C
:101C400080E090E00E948B0B8E010F5F1F4FCC2431
:101C5000C394D12CF8E0AF2EB12CA4E06A2E712CE5
:101C6000B3E08B2E912C8DE393E00E940501892B2C
:101C700009F460C0CE0189960E94D709C8010E946C
:101C8000D7098DE393E00E94D20397FD05C0682F2A
:101C9000C8010E94170AF5CF8D819E81892B31F0F2
:101CA000E981FA81309711F0608101C060E0CE01D6
:101CB00089960E94170A89819A810E94B71689A580
:101CC0009AA5009719F00E94351203C060E070E0F9
:101CD000CB011CA21BA21EA21DA218A61FA22AE0B5
:101CE000A8010E945C12F80101900020E9F73197E9
:101CF0007F01E01AF10AB701CE0183960E94990391
:101D0000811105C0CE0183960E94C00307C0F8A6CA
:101D1000EFA2B8018BA19CA10E941418CE0183965A
:101D20000E94470A8BA19CA10E94B71689A59AA57B
:101D30000E94B71685E094E00E941F02892BA9F04B
:101D4000C8010E94D70985E094E00E94D20397FD64
:101D500005C0682FC8010E94170AF5CFC8010E946C
:101D6000470A89819A810E94B7162FB7F89480910B
:101D7000C0029091C102A091C202B091C3022FBFD4
:101D80004091C4025091C5026091C6027091C70291
:101D90001C012D01241A350A460A570A20E1221691
:101DA00027E2320641045104D8F18093C402909393
:101DB000C502A093C602B093C7020E94C40ABC0128
:101DC000990F880B990B0E94B91226E636E646E079
:101DD00051E40E94181320E030E040E85AE30E94EA
:101DE00018131B012C012FE832EC45ED50E40E9442
:101DF000B21287FF07C0D092C902C092C80286E91A
:101E000091E00CC02FE135E843EE50E4C201B1018E
:101E10000E94B21287FF04C08AEB91E00E94F5098C
:101E20008091000190910101FC013196089729F100
:101E30008091C8029091C9020197F9F08091030442
:101E400090910404892B41F0A091FF03B09100040C
:101E5000109711F08C9101C080E0282F082E000C03
:101E6000330B3093CB022093CA02E930F10508F01E
:101E700085C1EC5CFF4F0C94F6158091CA029091DD
:101E8000CB02089709F4BDC1B092CB02A092CA025E
:101E9000B8C1082E000C990BAA0BBB0B8930910519
:101EA00008F06CC1FC01E35CFF4F0C94F61582E373
:101EB0000E94DC0882E30E94C60882E30E94B00808
:101EC00082E30E949A0882E30E94840882E30E94CF
:101ED0006E0882E30E94580882E30E94420882E36F
:101EE0000E942C0882E30E94090882E30E94F30703
:101EF00082E30E94DD0782E30E94C70782E30E941B
:101F0000B10782E30E949B0782E30E94850782E378
:101F10000E946F0782E30E94590730C1D0920101ED
:101F2000C09200012BC182E090E00CC090920101B0
:101F30008092000123C170920101609200011EC1D4
:101F400085E090E0909301018093000117C176E055
:101F5000272E312C30920101209200010FC10E94E6
:101F6000410767E0462E512C50920101409200013A
:101F700005C1B0920101A092000100C18091CA0286
:101F80009091CB02019709F4F9C02CC08091CA024C
:101F90009091CB02029731F5F1C08091CA029091E5
:101FA000CB020397F9F4EAC08091CA029091CB0268
:101FB0000497C1F4E3C08091CA029091CB020597C7
:101FC00089F4DCC08091CA029091CB02069751F44B
:101FD000D5C08091CA029091CB02079719F40E9454
:101FE0004107CCC01092010110920001C7C0F12C32
:101FF00082E30E94200882E30E94F30844E6E42E74
:10200000EF188E2D0E94F3078F2D0E94DD078E2D75
:102010000E94B1078F2D0E949B078E2D0E946F0793
:102020008F2D0E9459078E2D0E94C6088F2D0E9469
:10203000B0088E2D0E9484088F2D0E946E088E2D70
:102040000E9442088F2D0E942C08F39453E3552ED2
:10205000F510CECF60ED77E080E090E00E948B0B32
:1020600032E3F32E6AE070E080E090E00E948B0B98
:102070008F2D0E9420088F2D0E94F308F39425E6EF
:10208000F212F0CF82E192E00E94F50960E177E27E
:1020900080E090E00E948B0B24E6F22E6AE070E074
:1020A00080E090E00E948B0B8F2D0E9420088F2DE6
:1020B0000E94F308FA948FEFF812F0CF8CE192E0CF
:1020C0000E94F50960E177E280E090E00E948B0BCE
:1020D000F12C6AE070E080E090E00E948B0B8F2D85
:1020E0000E9420088F2D0E94F308F39495E6F912C0
:1020F000F0CF82E192E00E94F50960ED77E080E0A8
:1021000090E00E948B0B94E6F92E6AE070E080E08C
:1021100090E00E948B0B8F2D0E9420088F2D0E9433
:10212000F308FA9422242A94F210EFCF8CE192E083
:102130000E94F50960ED77E080E090E00E948B0B53
:10214000F12C6AE070E080E090E00E948B0B8F2D14
:102150000E9420088F2D0E94F308F39483E3382E09
:10216000F310EFCF84E292E00E94F5091092010192
:10217000109200018BE292E00E94F5090E94AC01EE
:1021800072CD84E032CD2DE630E03DCD2BE630E05F
:102190003ACD20E030E037CD292F30E09E3018F4E2
:1021A0002850310902C02E50310981E001C0880F4A
:1021B0002A95EAF734CD8091BA029091BB0224E0CF
:1021C0008530920709F43ACD009711F00E94E0049F
:1021D000809123048E7F809323041092B902109281
:1021E000B80285E094E09093BB028093BA02E0913C
:1021F0001804F0911904908180911A04892B80832E
:102200001DCDEA30F10508F0B9CFEA5BFF4F0C9421
:10221000F61585E094E00E94E0048DE393E00E94CF
:102220008A01E0914F03F091500380818F7E80837B
:10223000E0914F03F09150038081877F8083E0918C
:102240004F03F091500380818F778083E0914F039B
:10225000F091500380818F7D80838091570380931C
:1022600056038CCF1092400310923F0388EE93E008
:10227000A0E0B0E08093410390934203A093430316
:10228000B09344032CE031E030933E0320933D03B0
:1022900025EC30E030934A032093490324EC30E0EE
:1022A00030934C0320934B0320EC30E030934E03EB
:1022B00020934D0321EC30E03093500320934F03E3
:1022C00022EC30E0309352032093510326EC30E0AF
:1022D00030935403209353031092560310925703E4
:1022E0001092580310925903109231041092300446
:1022F0008093320490933304A0933404B093350454
:102300008EE191E090932F0480932E048EE294E06E
:1023100090932C0480932B0480E480932A04809172
:10232000FE038C30A0F491E0980F9093FE0380930D
:10233000270490E0FC01EE0FFF1F8E0F9F1FFC0192
:10234000E652FC4F88EB9BE09283818303C08FEFC2
:10235000809327048091FE038C30A0F491E0980FC5
:102360009093FE038093240490E0FC01EE0FFF1F86
:102370008E0F9F1FFC01E652FC4F88EB9BE092837F
:10238000818303C08FEF809324041092080410927D
:10239000070488EE93E0A0E0B0E0809309049093F6
:1023A0000A04A0930B04B0930C0480E391E0909393
:1023B00006048093050410921C0410921B041092D2
:1023C0001E0410921D041092200410921F041092FB
:1023D000220410922104609123046E7F6D7F60932C
:1023E00023046695617081E0682784E00E94020BF7
:1023F00061E084E00E944F0BEAEEF0E0E491E093AC
:102400001504E6EDF0E0E491F0E0EE0FFF1FE85375
:10241000FF4F85919491909317048093160460E088
:1024200085E00E944F0B8091230481FD04C061E090
:1024300085E00E94020B85E080931104EBEEF0E052
:10244000E491E0931204E7EDF0E0E491F0E0EE0FA8
:10245000FF1FE254FF4F8591949190931404809351
:1024600013048FEF93E00C94D7091F93FC01992775
:102470008827BC01E89411911032E9F3193010F06B
:102480001E30C8F31B3251F01D3249F4689406C067
:102490000E946B12610F711D811D911D11911053CE
:1024A0001A30B0F33EF490958095709561957F4F0A
:1024B0008F4F9F4F1F910895BB272A3051F49923C6
:1024C00042F4BDE290958095709561957F4F8F4F56
:1024D0009F4F0C948112592F482F372F262F660FAC
:1024E000771F881F991F660F771F881F991F620F1C
:1024F000731F841F951F660F771F881F991F0895EC
:10250000BB27FA01A62F6217710581059105330BD0
:1025100030FB66F0AA27660F771F881F991FAA1F36
:10252000A21710F0A21B63953850A9F7A05DAA333B
:1025300008F0A95DA19336F7B111B1931082CA01D9
:102540000C94A212DC01FC01672F71917723E1F753
:10255000329704C07C916D9370836291AE17BF0770
:10256000C8F308950E94F41208F481E00895E894F5
:1025700009C097FB3EF490958095709561957F4FCB
:102580008F4F9F4F9923A9F0F92F96E9BB27939579
:10259000F695879577956795B795F111F8CFFAF489
:1025A000BB0F11F460FF1BC06F5F7F4F8F4F9F4FBA
:1025B00016C0882311F096E911C0772321F09EE818
:1025C000872F762F05C0662371F096E8862F70E07E
:1025D00060E02AF09A95660F771F881FDAF7880F58
:1025E0009695879597F90895990F0008550FAA0BAE
:1025F000E0E8FEEF16161706E807F907C0F0121616
:102600001306E407F50798F0621B730B840B950B18
:1026100039F40A2661F0232B242B252B21F408956D
:102620000A2609F4A140A6958FEF811D811D08950A
:102630000E942B130C949C130E948E1338F00E945E
:10264000951320F0952311F00C9485130C948B13A3
:1026500011240C94D0130E94AD1370F3959FC1F315
:10266000950F50E0551F629FF001729FBB27F00D40
:10267000B11D639FAA27F00DB11DAA1F649F662795
:10268000B00DA11D661F829F2227B00DA11D621FE4
:10269000739FB00DA11D621F839FA00D611D221F9E
:1026A000749F3327A00D611D231F849F600D211D82
:1026B000822F762F6A2F11249F5750409AF0F1F005
:1026C00088234AF0EE0FFF1FBB1F661F771F881F6E
:1026D00091505040A9F79E3F510580F00C9485130E
:1026E0000C94D0135F3FE4F3983ED4F3869577952E
:1026F0006795B795F795E7959F5FC1F7FE2B880F14
:10270000911D9695879597F9089597F99F6780E8A9
:1027100070E060E008959FEF80EC089500240A9433
:102720001616170618060906089500240A941216AC
:102730001306140605060895092E0394000C11F4DF
:10274000882352F0BB0F40F4BF2B11F460FF04C08C
:102750006F5F7F4F8F4F9F4F089557FD9058440FE5
:10276000551F59F05F3F71F04795880F97FB991FF0
:1027700061F09F3F79F087950895121613061406AD
:10278000551FF2CF4695F1DF08C01616170618063A
:10279000991FF1CF86957105610508940895E89415
:1027A000BB2766277727CB0197F90895052E97FB5E
:1027B0001EF400940E94ED1357FD07D00E943F14B1
:1027C00007FC03D04EF40C94ED13509540953095D2
:1027D00021953F4F4F4F5F4F08959095809570958D
:1027E00061957F4F8F4F9F4F08950E946114A59F61
:1027F000900DB49F900DA49F800D911D11240895FC
:10280000B7FF0C94F5130E94F513821B930B0895E8
:102810002F923F924F925F926F927F928F929F92F0
:10282000AF92BF92CF92DF92EF92FF920F931F93DE
:10283000CF93DF93CDB7DEB7CA1BDB0B0FB6F8948F
:10284000DEBF0FBECDBF09942A88398848885F84CF
:102850006E847D848C849B84AA84B984C884DF8040
:10286000EE80FD800C811B81AA81B981CE0FD11D24
:102870000FB6F894DEBF0FBECDBFED010895A1E203
:102880001A2EAA1BBB1BFD010DC0AA1FBB1FEE1FEA
:10289000FF1FA217B307E407F50720F0A21BB30B35
:1028A000E40BF50B661F771F881F991F1A9469F7B1
:1028B00060957095809590959B01AC01BD01CF010D
:1028C0000895A29FB001B39FC001A39F700D811D09
:1028D0001124911DB29F700D811D1124911D089529
:1028E0005058BB27AA270E9488140C949C130E945E
:1028F0008E1338F00E94951320F039F49F3F19F49D
:1029000026F40C948B130EF4E095E7FB0C948513DE
:10291000E92F0E94AD1358F3BA17620773078407B3
:10292000950720F079F4A6F50C94CF130EF4E095FA
:102930000B2EBA2FA02D0B01B90190010C01CA0179
:10294000A0011124FF27591B99F0593F50F4503E24
:1029500068F11A16F040A22F232F342F4427585F16
:10296000F3CF469537952795A795F0405395C9F72E
:102970007EF41F16BA0B620B730B840BBAF09150E6
:10298000A1F0FF0FBB1F661F771F881FC2F70EC085
:10299000BA0F621F731F841F48F487957795679558
:1029A000B795F7959E3F08F0B0CF9395880F08F044
:1029B0009927EE0F9795879508950E94F1140C942E
:1029C0009C130E94951358F00E948E1340F029F436
:1029D0005F3F29F00C94851351110C94D0130C9483
:1029E0008B130E94AD1368F39923B1F3552391F330
:1029F000951B550BBB27AA2762177307840738F06E
:102A00009F5F5F4F220F331F441FAA1FA9F335D0CA
:102A10000E2E3AF0E0E832D091505040E695001C7E
:102A2000CAF72BD0FE2F29D0660F771F881FBB1F38
:102A3000261737074807AB07B0E809F0BB0B802D16
:102A4000BF01FF2793585F4F3AF09E3F510578F042
:102A50000C9485130C94D0135F3FE4F3983ED4F3A9
:102A6000869577956795B795F7959F5FC9F7880F16
:102A7000911D9695879597F90895E1E0660F771F68
:102A8000881FBB1F621773078407BA0720F0621BF9
:102A9000730B840BBA0BEE1F88F7E09508950E9424
:102AA000B51388F09F5798F0B92F9927B751B0F018
:102AB000E1F0660F771F881F991F1AF0BA95C9F7C2
:102AC00014C0B13091F00E94CF13B1E008950C947E
:102AD000CF13672F782F8827B85F39F0B93FCCF331
:102AE000869577956795B395D9F73EF4909580953F
:102AF000709561957F4F8F4F9F4F08950E94BE152F
:102B000090F09F3748F4911116F00C94D01360E0C8
:102B100070E080E89FEB089526F41B16611D711D7F
:102B2000811D0C9495150C94B015882371F47723AE
:102B300021F09850872B762F07C0662311F4992730
:102B40000DC09051862B70E060E02AF09A95660FD8
:102B5000771F881FDAF7880F9695879597F908955C
:102B60009F3F31F0915020F4879577956795B79501
:102B7000880F911D9695879597F908950E94B51332
:102B8000A0F0BEE7B91788F4BB279F3860F416168B
:102B9000B11D672F782F8827985FF7CF8695779597
:102BA0006795B11D93959639C8F30895991B79E0FF
:102BB00004C0991F961708F0961B881F7A95C9F7CD
:102BC0008095089597FB072E16F4009407D077FDA3
:102BD00009D00E940B1607FC05D03EF49095819514
:102BE0009F4F0895709561957F4F0895EE0FFF1FD9
:102BF0000590F491E02D09940E946114332312F49E
:102C00008A1B9B0B0C9406160E946114B7FF089553
:102C1000821B930B0895AA1BBB1B51E107C0AA1F7F
:102C2000BB1FA617B70710F0A61BB70B881F991F6D
:102C30005A95A9F780959095BC01CD0108950F9301
:102C40001F93CF93DF938230910510F482E090E0E0
:102C5000E0913C04F0913D0420E030E0A0E0B0E0E1
:102C6000309719F14081518102811381481759072A
:102C7000C8F08417950769F4109731F012960C93F9
:102C8000129713961C9327C000933C0410933D04A5
:102C900022C02115310519F04217530718F49A0183
:102CA000BD01EF01DF01F801DBCF21153105F9F09E
:102CB000281B390B2430310580F48A819B816115F2
:102CC000710521F0FB019383828304C090933D043E
:102CD00080933C04FE01329644C0FE01E20FF31FD4
:102CE0008193919322503109398328833AC02091EE
:102CF0003A0430913B04232B41F42091040130919C
:102D0000050130933B0420933A0420910201309155
:102D100003012115310541F42DB73EB7409106015D
:102D200050910701241B350BE0913A04F0913B04CC
:102D3000E217F307A0F42E1B3F0B2817390778F092
:102D4000AC014E5F5F4F2417350748F04E0F5F1FF1
:102D500050933B0440933A048193919302C0E0E086
:102D6000F0E0CF01DF91CF911F910F910895CF93A4
:102D7000DF93009709F481C0FC013297138212821D
:102D8000A0913C04B0913D04109781F420813181E1
:102D9000820F931F20913A0430913B042817390782
:102DA00051F5F0933B04E0933A0467C0ED0120E055
:102DB00030E0CE17DF0740F44A815B819E01411568
:102DC0005105F1F0EA01F5CFD383C28340815181EF
:102DD000840F951FC817D90759F488819981840FEA
:102DE000951F0296918380838A819B81938382833E
:102DF0002115310529F4F0933D04E0933C043DC0D6
:102E0000E901FB83EA8349915991C40FD51FEC175F
:102E1000FD0761F480819181840F951F0296E9017D
:102E200099838883828193819B838A83E0E0F0E0A9
:102E300012968D919C911397009719F0FD01DC017A
:102E4000F7CF8D919C9111979D012E5F3F4F820F7F
:102E5000931F20913A0430913B042817390769F4F5
:102E6000309729F410923D0410923C0402C0138262
:102E70001282B0933B04A0933A04DF91CF9108955E
:102E8000A0E0B0E0E6E4F7E10C940C14EC0100974C
:102E900021F4CB010E941F16B4C0FC01E60FF71FFE
:102EA0009C0122503109E217F30708F4A8C0D901A8
:102EB0000D911C91119706171707B0F005301105F9
:102EC00008F49BC0C80104978617970708F495C0BB
:102ED00002501109061B170B019311936D937C93FC
:102EE000CF010E94B71689C05B01A01AB10A4C013C
:102EF000800E911EA0913C04B0913D04612C712C78
:102F0000E12CF12C109709F446C08D919C911197FA
:102F1000A815B905B1F56C0142E0C40ED11CCA1464
:102F2000DB0478F14C018A189B08640142E0C40E6E
:102F3000D11C1296BC9012971396AC91B5E0CB16AB
:102F4000D10440F0B282A38391828082D9016D9333
:102F50007C9309C00E5F1F4F800F911FF901918371
:102F60008083EB2DFA2FE114F10431F0D701139691
:102F7000FC93EE93129741C0F0933D04E0933C0420
:102F80003CC06816790608F43C017D0112960D904C
:102F9000BC91A02DB7CF80913A0490913B04881644
:102FA0009906E1F466167706C8F4809102019091C3
:102FB0000301009741F48DB79EB7409106015091EF
:102FC0000701841B950BE817F907C8F4F0933B043D
:102FD000E0933A04F901718360830FC0CB010E9432
:102FE0001F167C01009759F0A801BE010E940B1822
:102FF000CE010E94B716C70104C0CE0102C080E016
:1030000090E0CDB7DEB7EEE00C94281481E090E0BC
:10301000F8940C941B18FB01DC0102C001900D9286
:1030200041505040D8F70895FB01DC0101900D920A
:103030000020E1F7089510E0CEE7D0E004C0FE01E3
:103040000E94F6152196CF37D107C9F7F894FFCF24
:10305000FFFF00003E048000000000003D01AA00C8
:10306000D4008A010501E300F700000000006703B7
:103070003A039603CE0132031E030F030000000043
:10308000CF01AA009603CE011F023702B6014865A0
:103090006C6C6F2C20526F626F5370696465722084
:1030A00068657265212049276D20696E69746961C0
:1030B0006C6973696E67206E6F772E2E2E004572D5
:1030C000726F722E204261747465727920766F6C13
:1030D00074616765206C6576656C20746F6F206C19
:1030E0006F772E2E2E005761726E696E672E204C00
:1030F0006F77206261747465727920766F6C746189
:103100006765206C6576656C2E004D656469756D2C
:10311000206261747465727920766F6C7461676582
:10312000206C6576656C2E2049742069732061647B
:10313000766973656420746F207475726E206F6693
:10314000662074686520726F626F7420616E6420FF
:1031500073746172742072656368617267696E6707
:103160002E006D61782070727A6F64006D61782036
:1031700074796C0073726F64656B00446F6E6521C7
:04318000000D0A0034
:00000001FF
